{
  "_format": "hh-sol-artifact-1",
  "contractName": "LexitCollection",
  "sourceName": "contracts/LexitCollection.sol",
  "abi": [
    {
      "inputs": [
        {
          "internalType": "string",
          "name": "baseTokenURI_",
          "type": "string"
        }
      ],
      "stateMutability": "nonpayable",
      "type": "constructor"
    },
    {
      "anonymous": false,
      "inputs": [
        {
          "indexed": true,
          "internalType": "address",
          "name": "owner",
          "type": "address"
        },
        {
          "indexed": true,
          "internalType": "address",
          "name": "approved",
          "type": "address"
        },
        {
          "indexed": true,
          "internalType": "uint256",
          "name": "tokenId",
          "type": "uint256"
        }
      ],
      "name": "Approval",
      "type": "event"
    },
    {
      "anonymous": false,
      "inputs": [
        {
          "indexed": true,
          "internalType": "address",
          "name": "owner",
          "type": "address"
        },
        {
          "indexed": true,
          "internalType": "address",
          "name": "operator",
          "type": "address"
        },
        {
          "indexed": false,
          "internalType": "bool",
          "name": "approved",
          "type": "bool"
        }
      ],
      "name": "ApprovalForAll",
      "type": "event"
    },
    {
      "anonymous": false,
      "inputs": [
        {
          "indexed": false,
          "internalType": "address",
          "name": "account",
          "type": "address"
        }
      ],
      "name": "Paused",
      "type": "event"
    },
    {
      "anonymous": false,
      "inputs": [
        {
          "indexed": true,
          "internalType": "bytes32",
          "name": "role",
          "type": "bytes32"
        },
        {
          "indexed": true,
          "internalType": "bytes32",
          "name": "previousAdminRole",
          "type": "bytes32"
        },
        {
          "indexed": true,
          "internalType": "bytes32",
          "name": "newAdminRole",
          "type": "bytes32"
        }
      ],
      "name": "RoleAdminChanged",
      "type": "event"
    },
    {
      "anonymous": false,
      "inputs": [
        {
          "indexed": true,
          "internalType": "bytes32",
          "name": "role",
          "type": "bytes32"
        },
        {
          "indexed": true,
          "internalType": "address",
          "name": "account",
          "type": "address"
        },
        {
          "indexed": true,
          "internalType": "address",
          "name": "sender",
          "type": "address"
        }
      ],
      "name": "RoleGranted",
      "type": "event"
    },
    {
      "anonymous": false,
      "inputs": [
        {
          "indexed": true,
          "internalType": "bytes32",
          "name": "role",
          "type": "bytes32"
        },
        {
          "indexed": true,
          "internalType": "address",
          "name": "account",
          "type": "address"
        },
        {
          "indexed": true,
          "internalType": "address",
          "name": "sender",
          "type": "address"
        }
      ],
      "name": "RoleRevoked",
      "type": "event"
    },
    {
      "anonymous": false,
      "inputs": [
        {
          "indexed": true,
          "internalType": "address",
          "name": "from",
          "type": "address"
        },
        {
          "indexed": true,
          "internalType": "address",
          "name": "to",
          "type": "address"
        },
        {
          "indexed": true,
          "internalType": "uint256",
          "name": "tokenId",
          "type": "uint256"
        }
      ],
      "name": "Transfer",
      "type": "event"
    },
    {
      "anonymous": false,
      "inputs": [
        {
          "indexed": false,
          "internalType": "address",
          "name": "account",
          "type": "address"
        }
      ],
      "name": "Unpaused",
      "type": "event"
    },
    {
      "inputs": [],
      "name": "DEFAULT_ADMIN_ROLE",
      "outputs": [
        {
          "internalType": "bytes32",
          "name": "",
          "type": "bytes32"
        }
      ],
      "stateMutability": "view",
      "type": "function"
    },
    {
      "inputs": [],
      "name": "MINTER_ROLE",
      "outputs": [
        {
          "internalType": "bytes32",
          "name": "",
          "type": "bytes32"
        }
      ],
      "stateMutability": "view",
      "type": "function"
    },
    {
      "inputs": [],
      "name": "PAUSER_ROLE",
      "outputs": [
        {
          "internalType": "bytes32",
          "name": "",
          "type": "bytes32"
        }
      ],
      "stateMutability": "view",
      "type": "function"
    },
    {
      "inputs": [],
      "name": "URI_SETTER_ROLE",
      "outputs": [
        {
          "internalType": "bytes32",
          "name": "",
          "type": "bytes32"
        }
      ],
      "stateMutability": "view",
      "type": "function"
    },
    {
      "inputs": [
        {
          "internalType": "address",
          "name": "to",
          "type": "address"
        },
        {
          "internalType": "uint256",
          "name": "tokenId",
          "type": "uint256"
        }
      ],
      "name": "approve",
      "outputs": [],
      "stateMutability": "nonpayable",
      "type": "function"
    },
    {
      "inputs": [
        {
          "internalType": "address",
          "name": "owner",
          "type": "address"
        }
      ],
      "name": "balanceOf",
      "outputs": [
        {
          "internalType": "uint256",
          "name": "",
          "type": "uint256"
        }
      ],
      "stateMutability": "view",
      "type": "function"
    },
    {
      "inputs": [],
      "name": "baseURI",
      "outputs": [
        {
          "internalType": "string",
          "name": "",
          "type": "string"
        }
      ],
      "stateMutability": "view",
      "type": "function"
    },
    {
      "inputs": [
        {
          "internalType": "uint256",
          "name": "tokenId",
          "type": "uint256"
        }
      ],
      "name": "burn",
      "outputs": [],
      "stateMutability": "nonpayable",
      "type": "function"
    },
    {
      "inputs": [
        {
          "internalType": "uint256",
          "name": "tokenId",
          "type": "uint256"
        }
      ],
      "name": "exists",
      "outputs": [
        {
          "internalType": "bool",
          "name": "",
          "type": "bool"
        }
      ],
      "stateMutability": "view",
      "type": "function"
    },
    {
      "inputs": [
        {
          "internalType": "uint256",
          "name": "tokenId",
          "type": "uint256"
        }
      ],
      "name": "getApproved",
      "outputs": [
        {
          "internalType": "address",
          "name": "",
          "type": "address"
        }
      ],
      "stateMutability": "view",
      "type": "function"
    },
    {
      "inputs": [
        {
          "internalType": "bytes32",
          "name": "role",
          "type": "bytes32"
        }
      ],
      "name": "getRoleAdmin",
      "outputs": [
        {
          "internalType": "bytes32",
          "name": "",
          "type": "bytes32"
        }
      ],
      "stateMutability": "view",
      "type": "function"
    },
    {
      "inputs": [
        {
          "internalType": "bytes32",
          "name": "role",
          "type": "bytes32"
        },
        {
          "internalType": "uint256",
          "name": "index",
          "type": "uint256"
        }
      ],
      "name": "getRoleMember",
      "outputs": [
        {
          "internalType": "address",
          "name": "",
          "type": "address"
        }
      ],
      "stateMutability": "view",
      "type": "function"
    },
    {
      "inputs": [
        {
          "internalType": "bytes32",
          "name": "role",
          "type": "bytes32"
        }
      ],
      "name": "getRoleMemberCount",
      "outputs": [
        {
          "internalType": "uint256",
          "name": "",
          "type": "uint256"
        }
      ],
      "stateMutability": "view",
      "type": "function"
    },
    {
      "inputs": [
        {
          "internalType": "bytes32",
          "name": "role",
          "type": "bytes32"
        },
        {
          "internalType": "address",
          "name": "account",
          "type": "address"
        }
      ],
      "name": "grantRole",
      "outputs": [],
      "stateMutability": "nonpayable",
      "type": "function"
    },
    {
      "inputs": [
        {
          "internalType": "bytes32",
          "name": "role",
          "type": "bytes32"
        },
        {
          "internalType": "address",
          "name": "account",
          "type": "address"
        }
      ],
      "name": "hasRole",
      "outputs": [
        {
          "internalType": "bool",
          "name": "",
          "type": "bool"
        }
      ],
      "stateMutability": "view",
      "type": "function"
    },
    {
      "inputs": [
        {
          "internalType": "address",
          "name": "owner",
          "type": "address"
        },
        {
          "internalType": "address",
          "name": "operator",
          "type": "address"
        }
      ],
      "name": "isApprovedForAll",
      "outputs": [
        {
          "internalType": "bool",
          "name": "",
          "type": "bool"
        }
      ],
      "stateMutability": "view",
      "type": "function"
    },
    {
      "inputs": [],
      "name": "name",
      "outputs": [
        {
          "internalType": "string",
          "name": "",
          "type": "string"
        }
      ],
      "stateMutability": "view",
      "type": "function"
    },
    {
      "inputs": [
        {
          "internalType": "uint256",
          "name": "tokenId",
          "type": "uint256"
        }
      ],
      "name": "ownerOf",
      "outputs": [
        {
          "internalType": "address",
          "name": "",
          "type": "address"
        }
      ],
      "stateMutability": "view",
      "type": "function"
    },
    {
      "inputs": [],
      "name": "pause",
      "outputs": [],
      "stateMutability": "nonpayable",
      "type": "function"
    },
    {
      "inputs": [],
      "name": "paused",
      "outputs": [
        {
          "internalType": "bool",
          "name": "",
          "type": "bool"
        }
      ],
      "stateMutability": "view",
      "type": "function"
    },
    {
      "inputs": [
        {
          "internalType": "bytes32",
          "name": "role",
          "type": "bytes32"
        },
        {
          "internalType": "address",
          "name": "account",
          "type": "address"
        }
      ],
      "name": "renounceRole",
      "outputs": [],
      "stateMutability": "nonpayable",
      "type": "function"
    },
    {
      "inputs": [
        {
          "internalType": "bytes32",
          "name": "role",
          "type": "bytes32"
        },
        {
          "internalType": "address",
          "name": "account",
          "type": "address"
        }
      ],
      "name": "revokeRole",
      "outputs": [],
      "stateMutability": "nonpayable",
      "type": "function"
    },
    {
      "inputs": [
        {
          "internalType": "uint256",
          "name": "_tokenId",
          "type": "uint256"
        },
        {
          "internalType": "uint256",
          "name": "_salePrice",
          "type": "uint256"
        }
      ],
      "name": "royaltyInfo",
      "outputs": [
        {
          "internalType": "address",
          "name": "",
          "type": "address"
        },
        {
          "internalType": "uint256",
          "name": "",
          "type": "uint256"
        }
      ],
      "stateMutability": "view",
      "type": "function"
    },
    {
      "inputs": [
        {
          "internalType": "address",
          "name": "to",
          "type": "address"
        },
        {
          "internalType": "uint256",
          "name": "tokenId",
          "type": "uint256"
        },
        {
          "internalType": "string",
          "name": "uri",
          "type": "string"
        },
        {
          "internalType": "address",
          "name": "royaltyReceiver",
          "type": "address"
        },
        {
          "internalType": "uint96",
          "name": "royaltyFraction",
          "type": "uint96"
        }
      ],
      "name": "safeMint",
      "outputs": [],
      "stateMutability": "nonpayable",
      "type": "function"
    },
    {
      "inputs": [
        {
          "internalType": "address",
          "name": "from",
          "type": "address"
        },
        {
          "internalType": "address",
          "name": "to",
          "type": "address"
        },
        {
          "internalType": "uint256",
          "name": "tokenId",
          "type": "uint256"
        }
      ],
      "name": "safeTransferFrom",
      "outputs": [],
      "stateMutability": "nonpayable",
      "type": "function"
    },
    {
      "inputs": [
        {
          "internalType": "address",
          "name": "from",
          "type": "address"
        },
        {
          "internalType": "address",
          "name": "to",
          "type": "address"
        },
        {
          "internalType": "uint256",
          "name": "tokenId",
          "type": "uint256"
        },
        {
          "internalType": "bytes",
          "name": "_data",
          "type": "bytes"
        }
      ],
      "name": "safeTransferFrom",
      "outputs": [],
      "stateMutability": "nonpayable",
      "type": "function"
    },
    {
      "inputs": [
        {
          "internalType": "address",
          "name": "operator",
          "type": "address"
        },
        {
          "internalType": "bool",
          "name": "approved",
          "type": "bool"
        }
      ],
      "name": "setApprovalForAll",
      "outputs": [],
      "stateMutability": "nonpayable",
      "type": "function"
    },
    {
      "inputs": [
        {
          "internalType": "string",
          "name": "baseTokenURI_",
          "type": "string"
        }
      ],
      "name": "setBaseURI",
      "outputs": [],
      "stateMutability": "nonpayable",
      "type": "function"
    },
    {
      "inputs": [
        {
          "internalType": "bytes4",
          "name": "interfaceId",
          "type": "bytes4"
        }
      ],
      "name": "supportsInterface",
      "outputs": [
        {
          "internalType": "bool",
          "name": "",
          "type": "bool"
        }
      ],
      "stateMutability": "view",
      "type": "function"
    },
    {
      "inputs": [],
      "name": "symbol",
      "outputs": [
        {
          "internalType": "string",
          "name": "",
          "type": "string"
        }
      ],
      "stateMutability": "view",
      "type": "function"
    },
    {
      "inputs": [
        {
          "internalType": "uint256",
          "name": "index",
          "type": "uint256"
        }
      ],
      "name": "tokenByIndex",
      "outputs": [
        {
          "internalType": "uint256",
          "name": "",
          "type": "uint256"
        }
      ],
      "stateMutability": "view",
      "type": "function"
    },
    {
      "inputs": [
        {
          "internalType": "address",
          "name": "owner",
          "type": "address"
        },
        {
          "internalType": "uint256",
          "name": "index",
          "type": "uint256"
        }
      ],
      "name": "tokenOfOwnerByIndex",
      "outputs": [
        {
          "internalType": "uint256",
          "name": "",
          "type": "uint256"
        }
      ],
      "stateMutability": "view",
      "type": "function"
    },
    {
      "inputs": [
        {
          "internalType": "uint256",
          "name": "tokenId",
          "type": "uint256"
        }
      ],
      "name": "tokenURI",
      "outputs": [
        {
          "internalType": "string",
          "name": "",
          "type": "string"
        }
      ],
      "stateMutability": "view",
      "type": "function"
    },
    {
      "inputs": [],
      "name": "totalSupply",
      "outputs": [
        {
          "internalType": "uint256",
          "name": "",
          "type": "uint256"
        }
      ],
      "stateMutability": "view",
      "type": "function"
    },
    {
      "inputs": [
        {
          "internalType": "address",
          "name": "from",
          "type": "address"
        },
        {
          "internalType": "address",
          "name": "to",
          "type": "address"
        },
        {
          "internalType": "uint256",
          "name": "tokenId",
          "type": "uint256"
        }
      ],
      "name": "transferFrom",
      "outputs": [],
      "stateMutability": "nonpayable",
      "type": "function"
    },
    {
      "inputs": [],
      "name": "unpause",
      "outputs": [],
      "stateMutability": "nonpayable",
      "type": "function"
    },
    {
      "inputs": [],
      "name": "version",
      "outputs": [
        {
          "internalType": "string",
          "name": "",
          "type": "string"
        }
      ],
      "stateMutability": "pure",
      "type": "function"
    }
  ],
  "bytecode": "0x60806040523480156200001157600080fd5b50604051620030de380380620030de833981016040819052620000349162000358565b604080518082018252600f81526e2632bc34ba21b7b63632b1ba34b7b760891b6020808301918252835180850190945260048452634c58544360e01b9084015281519192916200008791600291620002b2565b5080516200009d906003906020840190620002b2565b5050600d805460ff1916905550620000b760003362000158565b620000e37f65d7a28e3265b37a6474929f336521b332c1681b933f6cb9f3376673440d862a3362000158565b6200010f7f9f2df0fed2c77648de5860a4cc508cd0818c85b8b8a1ab4ceeef8d981c8956a63362000158565b6200013b7f7804d923f43a17d325d77e781528e0793b2edd9890ab45fc64efd7b4b427744c3362000158565b805162000150906010906020840190620002b2565b505062000481565b6200016f82826200019b60201b62000dfe1760201c565b6000828152600f602090815260409091206200019691839062000e8462000240821b17901c565b505050565b6000828152600e602090815260408083206001600160a01b038516845290915290205460ff166200023c576000828152600e602090815260408083206001600160a01b03851684529091529020805460ff19166001179055620001fb3390565b6001600160a01b0316816001600160a01b0316837f2f8788117e7eff1d82e926ec794901d17c78024a50270940304540a733656f0d60405160405180910390a45b5050565b600062000257836001600160a01b03841662000260565b90505b92915050565b6000818152600183016020526040812054620002a9575081546001818101845560008481526020808220909301849055845484825282860190935260409020919091556200025a565b5060006200025a565b828054620002c0906200042e565b90600052602060002090601f016020900481019282620002e457600085556200032f565b82601f10620002ff57805160ff19168380011785556200032f565b828001600101855582156200032f579182015b828111156200032f57825182559160200191906001019062000312565b506200033d92915062000341565b5090565b5b808211156200033d576000815560010162000342565b600060208083850312156200036b578182fd5b82516001600160401b038082111562000382578384fd5b818501915085601f83011262000396578384fd5b815181811115620003ab57620003ab6200046b565b604051601f8201601f19908116603f01168101908382118183101715620003d657620003d66200046b565b816040528281528886848701011115620003ee578687fd5b8693505b82841015620004115784840186015181850187015292850192620003f2565b828411156200042257868684830101525b98975050505050505050565b600181811c908216806200044357607f821691505b602082108114156200046557634e487b7160e01b600052602260045260246000fd5b50919050565b634e487b7160e01b600052604160045260246000fd5b612c4d80620004916000396000f3fe608060405234801561001057600080fd5b50600436106102275760003560e01c80635c975abb11610130578063a217fddf116100b8578063d53913931161007c578063d5391393146104ce578063d547741f146104f5578063e63ab1e914610508578063e985e9c51461052f578063f0c037ca1461056b57600080fd5b8063a217fddf1461047a578063a22cb46514610482578063b88d4fde14610495578063c87b56dd146104a8578063ca15c873146104bb57600080fd5b80637f345710116100ff5780637f3457101461041d5780638456cb59146104445780639010d07c1461044c57806391d148541461045f57806395d89b411461047257600080fd5b80635c975abb146103e45780636352211e146103ef5780636c0360eb1461040257806370a082311461040a57600080fd5b80632f745c59116101b357806342966c681161018257806342966c68146103775780634f558e791461038a5780634f6ccce71461039d57806354fd4d50146103b057806355f804b3146103d157600080fd5b80632f745c591461033657806336568abe146103495780633f4ba83a1461035c57806342842e0e1461036457600080fd5b806318160ddd116101fa57806318160ddd146102a957806323b872dd146102bb578063248a9ca3146102ce5780632a55205a146102f15780632f2ff15d1461032357600080fd5b806301ffc9a71461022c57806306fdde0314610254578063081812fc14610269578063095ea7b314610294575b600080fd5b61023f61023a366004612882565b61057e565b60405190151581526020015b60405180910390f35b61025c61058f565b60405161024b91906129fa565b61027c610277366004612827565b610621565b6040516001600160a01b03909116815260200161024b565b6102a76102a2366004612778565b6106ae565b005b600a545b60405190815260200161024b565b6102a76102c936600461268a565b6107c4565b6102ad6102dc366004612827565b6000908152600e602052604090206001015490565b6103046102ff366004612861565b6107f6565b604080516001600160a01b03909316835260208301919091520161024b565b6102a761033136600461283f565b6108a2565b6102ad610344366004612778565b6108c7565b6102a761035736600461283f565b61095d565b6102a76109db565b6102a761037236600461268a565b610a10565b6102a7610385366004612827565b610a2b565b61023f610398366004612827565b610aa2565b6102ad6103ab366004612827565b610aad565b604080518082019091526005815264181718171960d91b602082015261025c565b6102a76103df3660046128ba565b610b4e565b600d5460ff1661023f565b61027c6103fd366004612827565b610b8b565b61025c610c02565b6102ad61041836600461263e565b610c11565b6102ad7f7804d923f43a17d325d77e781528e0793b2edd9890ab45fc64efd7b4b427744c81565b6102a7610c98565b61027c61045a366004612861565b610cca565b61023f61046d36600461283f565b610ce9565b61025c610d14565b6102ad600081565b6102a761049036600461273e565b610d23565b6102a76104a33660046126c5565b610d2e565b61025c6104b6366004612827565b610d66565b6102ad6104c9366004612827565b610d71565b6102ad7f9f2df0fed2c77648de5860a4cc508cd0818c85b8b8a1ab4ceeef8d981c8956a681565b6102a761050336600461283f565b610d88565b6102ad7f65d7a28e3265b37a6474929f336521b332c1681b933f6cb9f3376673440d862a81565b61023f61053d366004612658565b6001600160a01b03918216600090815260076020908152604080832093909416825291909152205460ff1690565b6102a76105793660046127a1565b610dad565b600061058982610e99565b92915050565b60606002805461059e90612b55565b80601f01602080910402602001604051908101604052809291908181526020018280546105ca90612b55565b80156106175780601f106105ec57610100808354040283529160200191610617565b820191906000526020600020905b8154815290600101906020018083116105fa57829003601f168201915b5050505050905090565b600061062c82610ebe565b6106925760405162461bcd60e51b815260206004820152602c60248201527f4552433732313a20617070726f76656420717565727920666f72206e6f6e657860448201526b34b9ba32b73a103a37b5b2b760a11b60648201526084015b60405180910390fd5b506000908152600660205260409020546001600160a01b031690565b60006106b982610b8b565b9050806001600160a01b0316836001600160a01b031614156107275760405162461bcd60e51b815260206004820152602160248201527f4552433732313a20617070726f76616c20746f2063757272656e74206f776e656044820152603960f91b6064820152608401610689565b336001600160a01b03821614806107435750610743813361053d565b6107b55760405162461bcd60e51b815260206004820152603860248201527f4552433732313a20617070726f76652063616c6c6572206973206e6f74206f7760448201527f6e6572206e6f7220617070726f76656420666f7220616c6c00000000000000006064820152608401610689565b6107bf8383610edb565b505050565b6107cf335b82610f49565b6107eb5760405162461bcd60e51b815260040161068990612a5f565b6107bf838383611033565b60008281526001602090815260408083208151808301909252546001600160a01b038116808352600160a01b9091046001600160601b031692820192909252829161086b5750604080518082019091526000546001600160a01b0381168252600160a01b90046001600160601b031660208201525b60208101516000906127109061088a906001600160601b031687612adc565b6108949190612ac8565b915196919550909350505050565b6000828152600e60205260409020600101546108bd816111da565b6107bf83836111e4565b60006108d283610c11565b82106109345760405162461bcd60e51b815260206004820152602b60248201527f455243373231456e756d657261626c653a206f776e657220696e646578206f7560448201526a74206f6620626f756e647360a81b6064820152608401610689565b506001600160a01b03919091166000908152600860209081526040808320938352929052205490565b6001600160a01b03811633146109cd5760405162461bcd60e51b815260206004820152602f60248201527f416363657373436f6e74726f6c3a2063616e206f6e6c792072656e6f756e636560448201526e103937b632b9903337b91039b2b63360891b6064820152608401610689565b6109d78282611206565b5050565b7f65d7a28e3265b37a6474929f336521b332c1681b933f6cb9f3376673440d862a610a05816111da565b610a0d611228565b50565b6107bf83838360405180602001604052806000815250610d2e565b610a34336107c9565b610a995760405162461bcd60e51b815260206004820152603060248201527f4552433732314275726e61626c653a2063616c6c6572206973206e6f74206f7760448201526f1b995c881b9bdc88185c1c1c9bdd995960821b6064820152608401610689565b610a0d816112bb565b600061058982610ebe565b6000610ab8600a5490565b8210610b1b5760405162461bcd60e51b815260206004820152602c60248201527f455243373231456e756d657261626c653a20676c6f62616c20696e646578206f60448201526b7574206f6620626f756e647360a01b6064820152608401610689565b600a8281548110610b3c57634e487b7160e01b600052603260045260246000fd5b90600052602060002001549050919050565b7f7804d923f43a17d325d77e781528e0793b2edd9890ab45fc64efd7b4b427744c610b78816111da565b81516107bf9060109060208501906124be565b6000818152600460205260408120546001600160a01b0316806105895760405162461bcd60e51b815260206004820152602960248201527f4552433732313a206f776e657220717565727920666f72206e6f6e657869737460448201526832b73a103a37b5b2b760b91b6064820152608401610689565b60606010805461059e90612b55565b60006001600160a01b038216610c7c5760405162461bcd60e51b815260206004820152602a60248201527f4552433732313a2062616c616e636520717565727920666f7220746865207a65604482015269726f206164647265737360b01b6064820152608401610689565b506001600160a01b031660009081526005602052604090205490565b7f65d7a28e3265b37a6474929f336521b332c1681b933f6cb9f3376673440d862a610cc2816111da565b610a0d6112c4565b6000828152600f60205260408120610ce2908361133f565b9392505050565b6000918252600e602090815260408084206001600160a01b0393909316845291905290205460ff1690565b60606003805461059e90612b55565b6109d733838361134b565b610d383383610f49565b610d545760405162461bcd60e51b815260040161068990612a5f565b610d608484848461141a565b50505050565b60606105898261144d565b6000818152600f60205260408120610589906115af565b6000828152600e6020526040902060010154610da3816111da565b6107bf8383611206565b7f9f2df0fed2c77648de5860a4cc508cd0818c85b8b8a1ab4ceeef8d981c8956a6610dd7816111da565b610de186866115b9565b610deb85856115d3565b610df685848461165e565b505050505050565b610e088282610ce9565b6109d7576000828152600e602090815260408083206001600160a01b03851684529091529020805460ff19166001179055610e403390565b6001600160a01b0316816001600160a01b0316837f2f8788117e7eff1d82e926ec794901d17c78024a50270940304540a733656f0d60405160405180910390a45050565b6000610ce2836001600160a01b03841661176c565b60006001600160e01b03198216635a05180f60e01b14806105895750610589826117bb565b6000908152600460205260409020546001600160a01b0316151590565b600081815260066020526040902080546001600160a01b0319166001600160a01b0384169081179091558190610f1082610b8b565b6001600160a01b03167f8c5be1e5ebec7d5bd14f71427d1e84f3dd0314c0f7b2291e5b200ac8c7c3b92560405160405180910390a45050565b6000610f5482610ebe565b610fb55760405162461bcd60e51b815260206004820152602c60248201527f4552433732313a206f70657261746f7220717565727920666f72206e6f6e657860448201526b34b9ba32b73a103a37b5b2b760a11b6064820152608401610689565b6000610fc083610b8b565b9050806001600160a01b0316846001600160a01b0316148061100757506001600160a01b0380821660009081526007602090815260408083209388168352929052205460ff165b8061102b5750836001600160a01b031661102084610621565b6001600160a01b0316145b949350505050565b826001600160a01b031661104682610b8b565b6001600160a01b0316146110aa5760405162461bcd60e51b815260206004820152602560248201527f4552433732313a207472616e736665722066726f6d20696e636f72726563742060448201526437bbb732b960d91b6064820152608401610689565b6001600160a01b03821661110c5760405162461bcd60e51b8152602060048201526024808201527f4552433732313a207472616e7366657220746f20746865207a65726f206164646044820152637265737360e01b6064820152608401610689565b6111178383836117e0565b611122600082610edb565b6001600160a01b038316600090815260056020526040812080546001929061114b908490612afb565b90915550506001600160a01b0382166000908152600560205260408120805460019290611179908490612ab0565b909155505060008181526004602052604080822080546001600160a01b0319166001600160a01b0386811691821790925591518493918716917fddf252ad1be2c89b69c2b068fc378daa952ba7f163c4a11628f55a4df523b3ef91a4505050565b610a0d8133611831565b6111ee8282610dfe565b6000828152600f602052604090206107bf9082610e84565b6112108282611895565b6000828152600f602052604090206107bf90826118fc565b600d5460ff166112715760405162461bcd60e51b815260206004820152601460248201527314185d5cd8589b194e881b9bdd081c185d5cd95960621b6044820152606401610689565b600d805460ff191690557f5db9ee0a495bf2e6ff9c91a7834c1ba4fdd244a5e8aa4e537bd38aeae4b073aa335b6040516001600160a01b03909116815260200160405180910390a1565b610a0d81611911565b600d5460ff161561130a5760405162461bcd60e51b815260206004820152601060248201526f14185d5cd8589b194e881c185d5cd95960821b6044820152606401610689565b600d805460ff191660011790557f62e78cea01bee320cd4e420270b5ea74000d11b0c9f74754ebdbfc544b05a25861129e3390565b6000610ce2838361192b565b816001600160a01b0316836001600160a01b031614156113ad5760405162461bcd60e51b815260206004820152601960248201527f4552433732313a20617070726f766520746f2063616c6c6572000000000000006044820152606401610689565b6001600160a01b03838116600081815260076020908152604080832094871680845294825291829020805460ff191686151590811790915591519182527f17307eab39ab6107e8899845ad3d59bd9653f200f220920489ca2b5937696c31910160405180910390a3505050565b611425848484611033565b61143184848484611963565b610d605760405162461bcd60e51b815260040161068990612a0d565b606061145882610ebe565b6114be5760405162461bcd60e51b815260206004820152603160248201527f45524337323155524953746f726167653a2055524920717565727920666f72206044820152703737b732bc34b9ba32b73a103a37b5b2b760791b6064820152608401610689565b6000828152600c6020526040812080546114d790612b55565b80601f016020809104026020016040519081016040528092919081815260200182805461150390612b55565b80156115505780601f1061152557610100808354040283529160200191611550565b820191906000526020600020905b81548152906001019060200180831161153357829003601f168201915b505050505090506000611561610c02565b9050805160001415611574575092915050565b8151156115a657808260405160200161158e929190612919565b60405160208183030381529060405292505050919050565b61102b84611a70565b6000610589825490565b6109d7828260405180602001604052806000815250611b3a565b6115dc82610ebe565b61163f5760405162461bcd60e51b815260206004820152602e60248201527f45524337323155524953746f726167653a2055524920736574206f66206e6f6e60448201526d32bc34b9ba32b73a103a37b5b2b760911b6064820152608401610689565b6000828152600c6020908152604090912082516107bf928401906124be565b6127106001600160601b03821611156116cc5760405162461bcd60e51b815260206004820152602a60248201527f455243323938313a20726f79616c7479206665652077696c6c206578636565646044820152692073616c65507269636560b01b6064820152608401610689565b6001600160a01b0382166117225760405162461bcd60e51b815260206004820152601b60248201527f455243323938313a20496e76616c696420706172616d657465727300000000006044820152606401610689565b6040805180820182526001600160a01b0393841681526001600160601b0392831660208083019182526000968752600190529190942093519051909116600160a01b029116179055565b60008181526001830160205260408120546117b357508154600181810184556000848152602080822090930184905584548482528286019093526040902091909155610589565b506000610589565b60006001600160e01b03198216637965db0b60e01b1480610589575061058982611b6d565b600d5460ff16156118265760405162461bcd60e51b815260206004820152601060248201526f14185d5cd8589b194e881c185d5cd95960821b6044820152606401610689565b6107bf838383611b78565b61183b8282610ce9565b6109d757611853816001600160a01b03166014611c30565b61185e836020611c30565b60405160200161186f929190612948565b60408051601f198184030181529082905262461bcd60e51b8252610689916004016129fa565b61189f8282610ce9565b156109d7576000828152600e602090815260408083206001600160a01b0385168085529252808320805460ff1916905551339285917ff6391f5c32d9c69d2a47ea670b442974b53935d1edc7fd64eb21e047a839171b9190a45050565b6000610ce2836001600160a01b038416611e12565b61191a81611f2f565b600090815260016020526040812055565b600082600001828154811061195057634e487b7160e01b600052603260045260246000fd5b9060005260206000200154905092915050565b60006001600160a01b0384163b15611a6557604051630a85bd0160e11b81526001600160a01b0385169063150b7a02906119a79033908990889088906004016129bd565b602060405180830381600087803b1580156119c157600080fd5b505af19250505080156119f1575060408051601f3d908101601f191682019092526119ee9181019061289e565b60015b611a4b573d808015611a1f576040519150601f19603f3d011682016040523d82523d6000602084013e611a24565b606091505b508051611a435760405162461bcd60e51b815260040161068990612a0d565b805181602001fd5b6001600160e01b031916630a85bd0160e11b14905061102b565b506001949350505050565b6060611a7b82610ebe565b611adf5760405162461bcd60e51b815260206004820152602f60248201527f4552433732314d657461646174613a2055524920717565727920666f72206e6f60448201526e3732bc34b9ba32b73a103a37b5b2b760891b6064820152608401610689565b6000611ae9610c02565b90506000815111611b095760405180602001604052806000815250610ce2565b80611b1384611f6f565b604051602001611b24929190612919565b6040516020818303038152906040529392505050565b611b448383612089565b611b516000848484611963565b6107bf5760405162461bcd60e51b815260040161068990612a0d565b6000610589826121c8565b6001600160a01b038316611bd357611bce81600a80546000838152600b60205260408120829055600182018355919091527fc65a7bb8d6351c1cf70c95a316cc6a92839c986682d98bc35f958f4883f9d2a80155565b611bf6565b816001600160a01b0316836001600160a01b031614611bf657611bf683826121ed565b6001600160a01b038216611c0d576107bf8161228a565b826001600160a01b0316826001600160a01b0316146107bf576107bf8282612363565b60606000611c3f836002612adc565b611c4a906002612ab0565b67ffffffffffffffff811115611c7057634e487b7160e01b600052604160045260246000fd5b6040519080825280601f01601f191660200182016040528015611c9a576020820181803683370190505b509050600360fc1b81600081518110611cc357634e487b7160e01b600052603260045260246000fd5b60200101906001600160f81b031916908160001a905350600f60fb1b81600181518110611d0057634e487b7160e01b600052603260045260246000fd5b60200101906001600160f81b031916908160001a9053506000611d24846002612adc565b611d2f906001612ab0565b90505b6001811115611dc3576f181899199a1a9b1b9c1cb0b131b232b360811b85600f1660108110611d7157634e487b7160e01b600052603260045260246000fd5b1a60f81b828281518110611d9557634e487b7160e01b600052603260045260246000fd5b60200101906001600160f81b031916908160001a90535060049490941c93611dbc81612b3e565b9050611d32565b508315610ce25760405162461bcd60e51b815260206004820181905260248201527f537472696e67733a20686578206c656e67746820696e73756666696369656e746044820152606401610689565b60008181526001830160205260408120548015611f25576000611e36600183612afb565b8554909150600090611e4a90600190612afb565b9050818114611ecb576000866000018281548110611e7857634e487b7160e01b600052603260045260246000fd5b9060005260206000200154905080876000018481548110611ea957634e487b7160e01b600052603260045260246000fd5b6000918252602080832090910192909255918252600188019052604090208390555b8554869080611eea57634e487b7160e01b600052603160045260246000fd5b600190038181906000526020600020016000905590558560010160008681526020019081526020016000206000905560019350505050610589565b6000915050610589565b611f38816123a7565b6000818152600c602052604090208054611f5190612b55565b159050610a0d576000818152600c60205260408120610a0d91612542565b606081611f935750506040805180820190915260018152600360fc1b602082015290565b8160005b8115611fbd5780611fa781612b90565b9150611fb69050600a83612ac8565b9150611f97565b60008167ffffffffffffffff811115611fe657634e487b7160e01b600052604160045260246000fd5b6040519080825280601f01601f191660200182016040528015612010576020820181803683370190505b5090505b841561102b57612025600183612afb565b9150612032600a86612bab565b61203d906030612ab0565b60f81b81838151811061206057634e487b7160e01b600052603260045260246000fd5b60200101906001600160f81b031916908160001a905350612082600a86612ac8565b9450612014565b6001600160a01b0382166120df5760405162461bcd60e51b815260206004820181905260248201527f4552433732313a206d696e7420746f20746865207a65726f20616464726573736044820152606401610689565b6120e881610ebe565b156121355760405162461bcd60e51b815260206004820152601c60248201527f4552433732313a20746f6b656e20616c7265616479206d696e746564000000006044820152606401610689565b612141600083836117e0565b6001600160a01b038216600090815260056020526040812080546001929061216a908490612ab0565b909155505060008181526004602052604080822080546001600160a01b0319166001600160a01b03861690811790915590518392907fddf252ad1be2c89b69c2b068fc378daa952ba7f163c4a11628f55a4df523b3ef908290a45050565b60006001600160e01b0319821663780e9d6360e01b148061058957506105898261244e565b600060016121fa84610c11565b6122049190612afb565b600083815260096020526040902054909150808214612257576001600160a01b03841660009081526008602090815260408083208584528252808320548484528184208190558352600990915290208190555b5060009182526009602090815260408084208490556001600160a01b039094168352600881528383209183525290812055565b600a5460009061229c90600190612afb565b6000838152600b6020526040812054600a80549394509092849081106122d257634e487b7160e01b600052603260045260246000fd5b9060005260206000200154905080600a838154811061230157634e487b7160e01b600052603260045260246000fd5b6000918252602080832090910192909255828152600b9091526040808220849055858252812055600a80548061234757634e487b7160e01b600052603160045260246000fd5b6001900381819060005260206000200160009055905550505050565b600061236e83610c11565b6001600160a01b039093166000908152600860209081526040808320868452825280832085905593825260099052919091209190915550565b60006123b282610b8b565b90506123c0816000846117e0565b6123cb600083610edb565b6001600160a01b03811660009081526005602052604081208054600192906123f4908490612afb565b909155505060008281526004602052604080822080546001600160a01b0319169055518391906001600160a01b038416907fddf252ad1be2c89b69c2b068fc378daa952ba7f163c4a11628f55a4df523b3ef908390a45050565b60006001600160e01b031982166380ac58cd60e01b148061247f57506001600160e01b03198216635b5e139f60e01b145b8061058957506105898260006001600160e01b0319821663152a902d60e11b148061058957506301ffc9a760e01b6001600160e01b0319831614610589565b8280546124ca90612b55565b90600052602060002090601f0160209004810192826124ec5760008555612532565b82601f1061250557805160ff1916838001178555612532565b82800160010185558215612532579182015b82811115612532578251825591602001919060010190612517565b5061253e929150612578565b5090565b50805461254e90612b55565b6000825580601f1061255e575050565b601f016020900490600052602060002090810190610a0d91905b5b8082111561253e5760008155600101612579565b600067ffffffffffffffff808411156125a8576125a8612beb565b604051601f8501601f19908116603f011681019082821181831017156125d0576125d0612beb565b816040528093508581528686860111156125e957600080fd5b858560208301376000602087830101525050509392505050565b80356001600160a01b038116811461261a57600080fd5b919050565b600082601f83011261262f578081fd5b610ce28383356020850161258d565b60006020828403121561264f578081fd5b610ce282612603565b6000806040838503121561266a578081fd5b61267383612603565b915061268160208401612603565b90509250929050565b60008060006060848603121561269e578081fd5b6126a784612603565b92506126b560208501612603565b9150604084013590509250925092565b600080600080608085870312156126da578081fd5b6126e385612603565b93506126f160208601612603565b925060408501359150606085013567ffffffffffffffff811115612713578182fd5b8501601f81018713612723578182fd5b6127328782356020840161258d565b91505092959194509250565b60008060408385031215612750578182fd5b61275983612603565b91506020830135801515811461276d578182fd5b809150509250929050565b6000806040838503121561278a578182fd5b61279383612603565b946020939093013593505050565b600080600080600060a086880312156127b8578081fd5b6127c186612603565b945060208601359350604086013567ffffffffffffffff8111156127e3578182fd5b6127ef8882890161261f565b9350506127fe60608701612603565b915060808601356001600160601b0381168114612819578182fd5b809150509295509295909350565b600060208284031215612838578081fd5b5035919050565b60008060408385031215612851578182fd5b8235915061268160208401612603565b60008060408385031215612873578182fd5b50508035926020909101359150565b600060208284031215612893578081fd5b8135610ce281612c01565b6000602082840312156128af578081fd5b8151610ce281612c01565b6000602082840312156128cb578081fd5b813567ffffffffffffffff8111156128e1578182fd5b61102b8482850161261f565b60008151808452612905816020860160208601612b12565b601f01601f19169290920160200192915050565b6000835161292b818460208801612b12565b83519083019061293f818360208801612b12565b01949350505050565b7f416363657373436f6e74726f6c3a206163636f756e7420000000000000000000815260008351612980816017850160208801612b12565b7001034b99036b4b9b9b4b733903937b6329607d1b60179184019182015283516129b1816028840160208801612b12565b01602801949350505050565b6001600160a01b03858116825284166020820152604081018390526080606082018190526000906129f0908301846128ed565b9695505050505050565b602081526000610ce260208301846128ed565b60208082526032908201527f4552433732313a207472616e7366657220746f206e6f6e20455243373231526560408201527131b2b4bb32b91034b6b83632b6b2b73a32b960711b606082015260800190565b60208082526031908201527f4552433732313a207472616e736665722063616c6c6572206973206e6f74206f6040820152701ddb995c881b9bdc88185c1c1c9bdd9959607a1b606082015260800190565b60008219821115612ac357612ac3612bbf565b500190565b600082612ad757612ad7612bd5565b500490565b6000816000190483118215151615612af657612af6612bbf565b500290565b600082821015612b0d57612b0d612bbf565b500390565b60005b83811015612b2d578181015183820152602001612b15565b83811115610d605750506000910152565b600081612b4d57612b4d612bbf565b506000190190565b600181811c90821680612b6957607f821691505b60208210811415612b8a57634e487b7160e01b600052602260045260246000fd5b50919050565b6000600019821415612ba457612ba4612bbf565b5060010190565b600082612bba57612bba612bd5565b500690565b634e487b7160e01b600052601160045260246000fd5b634e487b7160e01b600052601260045260246000fd5b634e487b7160e01b600052604160045260246000fd5b6001600160e01b031981168114610a0d57600080fdfea2646970667358221220dc413991374e08032fd59219b48635927a7d0e77619eefa63f952714cf95831e64736f6c63430008040033",
  "linkReferences": {},
  "deployedLinkReferences": {}
}