{
  "_format": "hh-sol-artifact-1",
  "contractName": "Marketplace",
  "sourceName": "contracts/Marketplace.sol",
  "abi": [
    {
      "inputs": [
        {
          "internalType": "contract LexitCollection",
          "name": "collection_",
          "type": "address"
        },
        {
          "internalType": "address",
          "name": "beneficiary_",
          "type": "address"
        },
        {
          "internalType": "uint256",
          "name": "marketplaceFee_",
          "type": "uint256"
        }
      ],
      "stateMutability": "nonpayable",
      "type": "constructor"
    },
    {
      "anonymous": false,
      "inputs": [
        {
          "components": [
            {
              "internalType": "address",
              "name": "seller",
              "type": "address"
            },
            {
              "internalType": "address",
              "name": "buyer",
              "type": "address"
            },
            {
              "internalType": "address",
              "name": "nft",
              "type": "address"
            },
            {
              "internalType": "uint256",
              "name": "nftId",
              "type": "uint256"
            },
            {
              "internalType": "address",
              "name": "token",
              "type": "address"
            },
            {
              "internalType": "uint256",
              "name": "price",
              "type": "uint256"
            },
            {
              "internalType": "uint256",
              "name": "start",
              "type": "uint256"
            },
            {
              "internalType": "uint256",
              "name": "end",
              "type": "uint256"
            },
            {
              "internalType": "uint256",
              "name": "salt",
              "type": "uint256"
            }
          ],
          "indexed": false,
          "internalType": "struct LibOrder.Order",
          "name": "",
          "type": "tuple"
        }
      ],
      "name": "CancelOrder",
      "type": "event"
    },
    {
      "anonymous": false,
      "inputs": [
        {
          "components": [
            {
              "internalType": "address",
              "name": "seller",
              "type": "address"
            },
            {
              "internalType": "address",
              "name": "buyer",
              "type": "address"
            },
            {
              "internalType": "address",
              "name": "nft",
              "type": "address"
            },
            {
              "internalType": "uint256",
              "name": "nftId",
              "type": "uint256"
            },
            {
              "internalType": "address",
              "name": "token",
              "type": "address"
            },
            {
              "internalType": "uint256",
              "name": "price",
              "type": "uint256"
            },
            {
              "internalType": "uint256",
              "name": "start",
              "type": "uint256"
            },
            {
              "internalType": "uint256",
              "name": "end",
              "type": "uint256"
            },
            {
              "internalType": "uint256",
              "name": "salt",
              "type": "uint256"
            }
          ],
          "indexed": false,
          "internalType": "struct LibOrder.Order",
          "name": "",
          "type": "tuple"
        }
      ],
      "name": "CreateOrder",
      "type": "event"
    },
    {
      "anonymous": false,
      "inputs": [
        {
          "components": [
            {
              "internalType": "address",
              "name": "seller",
              "type": "address"
            },
            {
              "internalType": "address",
              "name": "buyer",
              "type": "address"
            },
            {
              "internalType": "address",
              "name": "nft",
              "type": "address"
            },
            {
              "internalType": "uint256",
              "name": "nftId",
              "type": "uint256"
            },
            {
              "internalType": "address",
              "name": "token",
              "type": "address"
            },
            {
              "internalType": "uint256",
              "name": "price",
              "type": "uint256"
            },
            {
              "internalType": "uint256",
              "name": "start",
              "type": "uint256"
            },
            {
              "internalType": "uint256",
              "name": "end",
              "type": "uint256"
            },
            {
              "internalType": "uint256",
              "name": "salt",
              "type": "uint256"
            }
          ],
          "indexed": false,
          "internalType": "struct LibOrder.Order",
          "name": "",
          "type": "tuple"
        }
      ],
      "name": "ExecuteOrder",
      "type": "event"
    },
    {
      "anonymous": false,
      "inputs": [
        {
          "indexed": true,
          "internalType": "uint256",
          "name": "tokenId",
          "type": "uint256"
        },
        {
          "indexed": false,
          "internalType": "string",
          "name": "cid",
          "type": "string"
        },
        {
          "indexed": false,
          "internalType": "address",
          "name": "royaltyReceiver",
          "type": "address"
        },
        {
          "indexed": false,
          "internalType": "uint256",
          "name": "royaltyFraction",
          "type": "uint256"
        }
      ],
      "name": "Mint",
      "type": "event"
    },
    {
      "anonymous": false,
      "inputs": [
        {
          "indexed": false,
          "internalType": "uint256[]",
          "name": "tokenIds",
          "type": "uint256[]"
        },
        {
          "indexed": false,
          "internalType": "string[]",
          "name": "cids",
          "type": "string[]"
        },
        {
          "indexed": false,
          "internalType": "address",
          "name": "royaltyReceiver",
          "type": "address"
        },
        {
          "indexed": false,
          "internalType": "uint256",
          "name": "royaltyFraction",
          "type": "uint256"
        }
      ],
      "name": "MintBatch",
      "type": "event"
    },
    {
      "anonymous": false,
      "inputs": [
        {
          "indexed": false,
          "internalType": "address",
          "name": "account",
          "type": "address"
        }
      ],
      "name": "Paused",
      "type": "event"
    },
    {
      "anonymous": false,
      "inputs": [
        {
          "indexed": true,
          "internalType": "bytes32",
          "name": "role",
          "type": "bytes32"
        },
        {
          "indexed": true,
          "internalType": "bytes32",
          "name": "previousAdminRole",
          "type": "bytes32"
        },
        {
          "indexed": true,
          "internalType": "bytes32",
          "name": "newAdminRole",
          "type": "bytes32"
        }
      ],
      "name": "RoleAdminChanged",
      "type": "event"
    },
    {
      "anonymous": false,
      "inputs": [
        {
          "indexed": true,
          "internalType": "bytes32",
          "name": "role",
          "type": "bytes32"
        },
        {
          "indexed": true,
          "internalType": "address",
          "name": "account",
          "type": "address"
        },
        {
          "indexed": true,
          "internalType": "address",
          "name": "sender",
          "type": "address"
        }
      ],
      "name": "RoleGranted",
      "type": "event"
    },
    {
      "anonymous": false,
      "inputs": [
        {
          "indexed": true,
          "internalType": "bytes32",
          "name": "role",
          "type": "bytes32"
        },
        {
          "indexed": true,
          "internalType": "address",
          "name": "account",
          "type": "address"
        },
        {
          "indexed": true,
          "internalType": "address",
          "name": "sender",
          "type": "address"
        }
      ],
      "name": "RoleRevoked",
      "type": "event"
    },
    {
      "anonymous": false,
      "inputs": [
        {
          "indexed": true,
          "internalType": "address",
          "name": "beneficiary",
          "type": "address"
        }
      ],
      "name": "SetBeneficiary",
      "type": "event"
    },
    {
      "anonymous": false,
      "inputs": [
        {
          "indexed": false,
          "internalType": "uint256",
          "name": "fee",
          "type": "uint256"
        }
      ],
      "name": "SetMarketplaceFee",
      "type": "event"
    },
    {
      "anonymous": false,
      "inputs": [
        {
          "indexed": false,
          "internalType": "address",
          "name": "account",
          "type": "address"
        }
      ],
      "name": "Unpaused",
      "type": "event"
    },
    {
      "anonymous": false,
      "inputs": [
        {
          "components": [
            {
              "internalType": "address",
              "name": "seller",
              "type": "address"
            },
            {
              "internalType": "address",
              "name": "buyer",
              "type": "address"
            },
            {
              "internalType": "address",
              "name": "nft",
              "type": "address"
            },
            {
              "internalType": "uint256",
              "name": "nftId",
              "type": "uint256"
            },
            {
              "internalType": "address",
              "name": "token",
              "type": "address"
            },
            {
              "internalType": "uint256",
              "name": "price",
              "type": "uint256"
            },
            {
              "internalType": "uint256",
              "name": "start",
              "type": "uint256"
            },
            {
              "internalType": "uint256",
              "name": "end",
              "type": "uint256"
            },
            {
              "internalType": "uint256",
              "name": "salt",
              "type": "uint256"
            }
          ],
          "indexed": false,
          "internalType": "struct LibOrder.Order",
          "name": "",
          "type": "tuple"
        }
      ],
      "name": "UpdateOrder",
      "type": "event"
    },
    {
      "inputs": [],
      "name": "ADMIN_ROLE",
      "outputs": [
        {
          "internalType": "bytes32",
          "name": "",
          "type": "bytes32"
        }
      ],
      "stateMutability": "view",
      "type": "function"
    },
    {
      "inputs": [],
      "name": "DEFAULT_ADMIN_ROLE",
      "outputs": [
        {
          "internalType": "bytes32",
          "name": "",
          "type": "bytes32"
        }
      ],
      "stateMutability": "view",
      "type": "function"
    },
    {
      "inputs": [],
      "name": "HUNDRED_PERCENT",
      "outputs": [
        {
          "internalType": "uint256",
          "name": "",
          "type": "uint256"
        }
      ],
      "stateMutability": "view",
      "type": "function"
    },
    {
      "inputs": [],
      "name": "PAUSER_ROLE",
      "outputs": [
        {
          "internalType": "bytes32",
          "name": "",
          "type": "bytes32"
        }
      ],
      "stateMutability": "view",
      "type": "function"
    },
    {
      "inputs": [],
      "name": "beneficiary",
      "outputs": [
        {
          "internalType": "address",
          "name": "",
          "type": "address"
        }
      ],
      "stateMutability": "view",
      "type": "function"
    },
    {
      "inputs": [
        {
          "components": [
            {
              "internalType": "address",
              "name": "seller",
              "type": "address"
            },
            {
              "internalType": "address",
              "name": "buyer",
              "type": "address"
            },
            {
              "internalType": "address",
              "name": "nft",
              "type": "address"
            },
            {
              "internalType": "uint256",
              "name": "nftId",
              "type": "uint256"
            },
            {
              "internalType": "address",
              "name": "token",
              "type": "address"
            },
            {
              "internalType": "uint256",
              "name": "price",
              "type": "uint256"
            },
            {
              "internalType": "uint256",
              "name": "start",
              "type": "uint256"
            },
            {
              "internalType": "uint256",
              "name": "end",
              "type": "uint256"
            },
            {
              "internalType": "uint256",
              "name": "salt",
              "type": "uint256"
            }
          ],
          "internalType": "struct LibOrder.Order",
          "name": "order_",
          "type": "tuple"
        }
      ],
      "name": "cancelAsk",
      "outputs": [],
      "stateMutability": "nonpayable",
      "type": "function"
    },
    {
      "inputs": [
        {
          "components": [
            {
              "internalType": "address",
              "name": "seller",
              "type": "address"
            },
            {
              "internalType": "address",
              "name": "buyer",
              "type": "address"
            },
            {
              "internalType": "address",
              "name": "nft",
              "type": "address"
            },
            {
              "internalType": "uint256",
              "name": "nftId",
              "type": "uint256"
            },
            {
              "internalType": "address",
              "name": "token",
              "type": "address"
            },
            {
              "internalType": "uint256",
              "name": "price",
              "type": "uint256"
            },
            {
              "internalType": "uint256",
              "name": "start",
              "type": "uint256"
            },
            {
              "internalType": "uint256",
              "name": "end",
              "type": "uint256"
            },
            {
              "internalType": "uint256",
              "name": "salt",
              "type": "uint256"
            }
          ],
          "internalType": "struct LibOrder.Order",
          "name": "order_",
          "type": "tuple"
        }
      ],
      "name": "cancelBid",
      "outputs": [],
      "stateMutability": "nonpayable",
      "type": "function"
    },
    {
      "inputs": [],
      "name": "collection",
      "outputs": [
        {
          "internalType": "address",
          "name": "",
          "type": "address"
        }
      ],
      "stateMutability": "view",
      "type": "function"
    },
    {
      "inputs": [
        {
          "components": [
            {
              "internalType": "address",
              "name": "seller",
              "type": "address"
            },
            {
              "internalType": "address",
              "name": "buyer",
              "type": "address"
            },
            {
              "internalType": "address",
              "name": "nft",
              "type": "address"
            },
            {
              "internalType": "uint256",
              "name": "nftId",
              "type": "uint256"
            },
            {
              "internalType": "address",
              "name": "token",
              "type": "address"
            },
            {
              "internalType": "uint256",
              "name": "price",
              "type": "uint256"
            },
            {
              "internalType": "uint256",
              "name": "start",
              "type": "uint256"
            },
            {
              "internalType": "uint256",
              "name": "end",
              "type": "uint256"
            },
            {
              "internalType": "uint256",
              "name": "salt",
              "type": "uint256"
            }
          ],
          "internalType": "struct LibOrder.Order",
          "name": "order",
          "type": "tuple"
        }
      ],
      "name": "createAsk",
      "outputs": [],
      "stateMutability": "nonpayable",
      "type": "function"
    },
    {
      "inputs": [
        {
          "components": [
            {
              "internalType": "address",
              "name": "seller",
              "type": "address"
            },
            {
              "internalType": "address",
              "name": "buyer",
              "type": "address"
            },
            {
              "internalType": "address",
              "name": "nft",
              "type": "address"
            },
            {
              "internalType": "uint256",
              "name": "nftId",
              "type": "uint256"
            },
            {
              "internalType": "address",
              "name": "token",
              "type": "address"
            },
            {
              "internalType": "uint256",
              "name": "price",
              "type": "uint256"
            },
            {
              "internalType": "uint256",
              "name": "start",
              "type": "uint256"
            },
            {
              "internalType": "uint256",
              "name": "end",
              "type": "uint256"
            },
            {
              "internalType": "uint256",
              "name": "salt",
              "type": "uint256"
            }
          ],
          "internalType": "struct LibOrder.Order",
          "name": "order",
          "type": "tuple"
        }
      ],
      "name": "createBid",
      "outputs": [],
      "stateMutability": "payable",
      "type": "function"
    },
    {
      "inputs": [
        {
          "components": [
            {
              "internalType": "address",
              "name": "seller",
              "type": "address"
            },
            {
              "internalType": "address",
              "name": "buyer",
              "type": "address"
            },
            {
              "internalType": "address",
              "name": "nft",
              "type": "address"
            },
            {
              "internalType": "uint256",
              "name": "nftId",
              "type": "uint256"
            },
            {
              "internalType": "address",
              "name": "token",
              "type": "address"
            },
            {
              "internalType": "uint256",
              "name": "price",
              "type": "uint256"
            },
            {
              "internalType": "uint256",
              "name": "start",
              "type": "uint256"
            },
            {
              "internalType": "uint256",
              "name": "end",
              "type": "uint256"
            },
            {
              "internalType": "uint256",
              "name": "salt",
              "type": "uint256"
            }
          ],
          "internalType": "struct LibOrder.Order",
          "name": "order_",
          "type": "tuple"
        }
      ],
      "name": "executeAsk",
      "outputs": [],
      "stateMutability": "payable",
      "type": "function"
    },
    {
      "inputs": [
        {
          "components": [
            {
              "internalType": "address",
              "name": "seller",
              "type": "address"
            },
            {
              "internalType": "address",
              "name": "buyer",
              "type": "address"
            },
            {
              "internalType": "address",
              "name": "nft",
              "type": "address"
            },
            {
              "internalType": "uint256",
              "name": "nftId",
              "type": "uint256"
            },
            {
              "internalType": "address",
              "name": "token",
              "type": "address"
            },
            {
              "internalType": "uint256",
              "name": "price",
              "type": "uint256"
            },
            {
              "internalType": "uint256",
              "name": "start",
              "type": "uint256"
            },
            {
              "internalType": "uint256",
              "name": "end",
              "type": "uint256"
            },
            {
              "internalType": "uint256",
              "name": "salt",
              "type": "uint256"
            }
          ],
          "internalType": "struct LibOrder.Order",
          "name": "order_",
          "type": "tuple"
        }
      ],
      "name": "executeBid",
      "outputs": [],
      "stateMutability": "nonpayable",
      "type": "function"
    },
    {
      "inputs": [
        {
          "components": [
            {
              "internalType": "address",
              "name": "seller",
              "type": "address"
            },
            {
              "internalType": "address",
              "name": "buyer",
              "type": "address"
            },
            {
              "internalType": "address",
              "name": "nft",
              "type": "address"
            },
            {
              "internalType": "uint256",
              "name": "nftId",
              "type": "uint256"
            },
            {
              "internalType": "address",
              "name": "token",
              "type": "address"
            },
            {
              "internalType": "uint256",
              "name": "price",
              "type": "uint256"
            },
            {
              "internalType": "uint256",
              "name": "start",
              "type": "uint256"
            },
            {
              "internalType": "uint256",
              "name": "end",
              "type": "uint256"
            },
            {
              "internalType": "uint256",
              "name": "salt",
              "type": "uint256"
            }
          ],
          "internalType": "struct LibOrder.Order",
          "name": "order_",
          "type": "tuple"
        }
      ],
      "name": "getOrder",
      "outputs": [
        {
          "components": [
            {
              "internalType": "address",
              "name": "seller",
              "type": "address"
            },
            {
              "internalType": "address",
              "name": "buyer",
              "type": "address"
            },
            {
              "internalType": "address",
              "name": "nft",
              "type": "address"
            },
            {
              "internalType": "uint256",
              "name": "nftId",
              "type": "uint256"
            },
            {
              "internalType": "address",
              "name": "token",
              "type": "address"
            },
            {
              "internalType": "uint256",
              "name": "price",
              "type": "uint256"
            },
            {
              "internalType": "uint256",
              "name": "start",
              "type": "uint256"
            },
            {
              "internalType": "uint256",
              "name": "end",
              "type": "uint256"
            },
            {
              "internalType": "uint256",
              "name": "salt",
              "type": "uint256"
            }
          ],
          "internalType": "struct LibOrder.Order",
          "name": "",
          "type": "tuple"
        }
      ],
      "stateMutability": "view",
      "type": "function"
    },
    {
      "inputs": [
        {
          "components": [
            {
              "internalType": "address",
              "name": "seller",
              "type": "address"
            },
            {
              "internalType": "address",
              "name": "buyer",
              "type": "address"
            },
            {
              "internalType": "address",
              "name": "nft",
              "type": "address"
            },
            {
              "internalType": "uint256",
              "name": "nftId",
              "type": "uint256"
            },
            {
              "internalType": "address",
              "name": "token",
              "type": "address"
            },
            {
              "internalType": "uint256",
              "name": "price",
              "type": "uint256"
            },
            {
              "internalType": "uint256",
              "name": "start",
              "type": "uint256"
            },
            {
              "internalType": "uint256",
              "name": "end",
              "type": "uint256"
            },
            {
              "internalType": "uint256",
              "name": "salt",
              "type": "uint256"
            }
          ],
          "internalType": "struct LibOrder.Order",
          "name": "order",
          "type": "tuple"
        }
      ],
      "name": "getOrderHash",
      "outputs": [
        {
          "internalType": "bytes32",
          "name": "",
          "type": "bytes32"
        }
      ],
      "stateMutability": "pure",
      "type": "function"
    },
    {
      "inputs": [
        {
          "internalType": "bytes32",
          "name": "role",
          "type": "bytes32"
        }
      ],
      "name": "getRoleAdmin",
      "outputs": [
        {
          "internalType": "bytes32",
          "name": "",
          "type": "bytes32"
        }
      ],
      "stateMutability": "view",
      "type": "function"
    },
    {
      "inputs": [
        {
          "internalType": "bytes32",
          "name": "role",
          "type": "bytes32"
        },
        {
          "internalType": "uint256",
          "name": "index",
          "type": "uint256"
        }
      ],
      "name": "getRoleMember",
      "outputs": [
        {
          "internalType": "address",
          "name": "",
          "type": "address"
        }
      ],
      "stateMutability": "view",
      "type": "function"
    },
    {
      "inputs": [
        {
          "internalType": "bytes32",
          "name": "role",
          "type": "bytes32"
        }
      ],
      "name": "getRoleMemberCount",
      "outputs": [
        {
          "internalType": "uint256",
          "name": "",
          "type": "uint256"
        }
      ],
      "stateMutability": "view",
      "type": "function"
    },
    {
      "inputs": [
        {
          "internalType": "bytes32",
          "name": "role",
          "type": "bytes32"
        },
        {
          "internalType": "address",
          "name": "account",
          "type": "address"
        }
      ],
      "name": "grantRole",
      "outputs": [],
      "stateMutability": "nonpayable",
      "type": "function"
    },
    {
      "inputs": [
        {
          "internalType": "bytes32",
          "name": "role",
          "type": "bytes32"
        },
        {
          "internalType": "address",
          "name": "account",
          "type": "address"
        }
      ],
      "name": "hasRole",
      "outputs": [
        {
          "internalType": "bool",
          "name": "",
          "type": "bool"
        }
      ],
      "stateMutability": "view",
      "type": "function"
    },
    {
      "inputs": [
        {
          "components": [
            {
              "internalType": "address",
              "name": "seller",
              "type": "address"
            },
            {
              "internalType": "address",
              "name": "buyer",
              "type": "address"
            },
            {
              "internalType": "address",
              "name": "nft",
              "type": "address"
            },
            {
              "internalType": "uint256",
              "name": "nftId",
              "type": "uint256"
            },
            {
              "internalType": "address",
              "name": "token",
              "type": "address"
            },
            {
              "internalType": "uint256",
              "name": "price",
              "type": "uint256"
            },
            {
              "internalType": "uint256",
              "name": "start",
              "type": "uint256"
            },
            {
              "internalType": "uint256",
              "name": "end",
              "type": "uint256"
            },
            {
              "internalType": "uint256",
              "name": "salt",
              "type": "uint256"
            }
          ],
          "internalType": "struct LibOrder.Order",
          "name": "order_",
          "type": "tuple"
        }
      ],
      "name": "isOrderActive",
      "outputs": [
        {
          "internalType": "bool",
          "name": "",
          "type": "bool"
        }
      ],
      "stateMutability": "view",
      "type": "function"
    },
    {
      "inputs": [
        {
          "components": [
            {
              "internalType": "address",
              "name": "seller",
              "type": "address"
            },
            {
              "internalType": "address",
              "name": "buyer",
              "type": "address"
            },
            {
              "internalType": "address",
              "name": "nft",
              "type": "address"
            },
            {
              "internalType": "uint256",
              "name": "nftId",
              "type": "uint256"
            },
            {
              "internalType": "address",
              "name": "token",
              "type": "address"
            },
            {
              "internalType": "uint256",
              "name": "price",
              "type": "uint256"
            },
            {
              "internalType": "uint256",
              "name": "start",
              "type": "uint256"
            },
            {
              "internalType": "uint256",
              "name": "end",
              "type": "uint256"
            },
            {
              "internalType": "uint256",
              "name": "salt",
              "type": "uint256"
            }
          ],
          "internalType": "struct LibOrder.Order",
          "name": "order",
          "type": "tuple"
        }
      ],
      "name": "isOrderExist",
      "outputs": [
        {
          "internalType": "bool",
          "name": "",
          "type": "bool"
        }
      ],
      "stateMutability": "view",
      "type": "function"
    },
    {
      "inputs": [],
      "name": "marketplaceFee",
      "outputs": [
        {
          "internalType": "uint256",
          "name": "",
          "type": "uint256"
        }
      ],
      "stateMutability": "view",
      "type": "function"
    },
    {
      "inputs": [
        {
          "internalType": "address",
          "name": "to",
          "type": "address"
        },
        {
          "internalType": "string",
          "name": "cid",
          "type": "string"
        },
        {
          "internalType": "address",
          "name": "royaltyReceiver",
          "type": "address"
        },
        {
          "internalType": "uint96",
          "name": "royaltyFraction",
          "type": "uint96"
        }
      ],
      "name": "mint",
      "outputs": [],
      "stateMutability": "nonpayable",
      "type": "function"
    },
    {
      "inputs": [
        {
          "internalType": "address",
          "name": "to",
          "type": "address"
        },
        {
          "internalType": "string[]",
          "name": "cids",
          "type": "string[]"
        },
        {
          "internalType": "address",
          "name": "royaltyReceiver",
          "type": "address"
        },
        {
          "internalType": "uint96",
          "name": "royaltyFraction",
          "type": "uint96"
        }
      ],
      "name": "mintBatch",
      "outputs": [],
      "stateMutability": "nonpayable",
      "type": "function"
    },
    {
      "inputs": [],
      "name": "pause",
      "outputs": [],
      "stateMutability": "nonpayable",
      "type": "function"
    },
    {
      "inputs": [],
      "name": "paused",
      "outputs": [
        {
          "internalType": "bool",
          "name": "",
          "type": "bool"
        }
      ],
      "stateMutability": "view",
      "type": "function"
    },
    {
      "inputs": [
        {
          "internalType": "bytes32",
          "name": "role",
          "type": "bytes32"
        },
        {
          "internalType": "address",
          "name": "account",
          "type": "address"
        }
      ],
      "name": "renounceRole",
      "outputs": [],
      "stateMutability": "nonpayable",
      "type": "function"
    },
    {
      "inputs": [
        {
          "internalType": "bytes32",
          "name": "role",
          "type": "bytes32"
        },
        {
          "internalType": "address",
          "name": "account",
          "type": "address"
        }
      ],
      "name": "revokeRole",
      "outputs": [],
      "stateMutability": "nonpayable",
      "type": "function"
    },
    {
      "inputs": [
        {
          "internalType": "address",
          "name": "beneficiary_",
          "type": "address"
        }
      ],
      "name": "setBeneficiary",
      "outputs": [],
      "stateMutability": "nonpayable",
      "type": "function"
    },
    {
      "inputs": [
        {
          "internalType": "uint256",
          "name": "fee",
          "type": "uint256"
        }
      ],
      "name": "setMearketplaceFee",
      "outputs": [],
      "stateMutability": "nonpayable",
      "type": "function"
    },
    {
      "inputs": [
        {
          "internalType": "bytes4",
          "name": "interfaceId",
          "type": "bytes4"
        }
      ],
      "name": "supportsInterface",
      "outputs": [
        {
          "internalType": "bool",
          "name": "",
          "type": "bool"
        }
      ],
      "stateMutability": "view",
      "type": "function"
    },
    {
      "inputs": [],
      "name": "timestamp",
      "outputs": [
        {
          "internalType": "uint256",
          "name": "",
          "type": "uint256"
        }
      ],
      "stateMutability": "view",
      "type": "function"
    },
    {
      "inputs": [],
      "name": "unpause",
      "outputs": [],
      "stateMutability": "nonpayable",
      "type": "function"
    },
    {
      "inputs": [
        {
          "components": [
            {
              "internalType": "address",
              "name": "seller",
              "type": "address"
            },
            {
              "internalType": "address",
              "name": "buyer",
              "type": "address"
            },
            {
              "internalType": "address",
              "name": "nft",
              "type": "address"
            },
            {
              "internalType": "uint256",
              "name": "nftId",
              "type": "uint256"
            },
            {
              "internalType": "address",
              "name": "token",
              "type": "address"
            },
            {
              "internalType": "uint256",
              "name": "price",
              "type": "uint256"
            },
            {
              "internalType": "uint256",
              "name": "start",
              "type": "uint256"
            },
            {
              "internalType": "uint256",
              "name": "end",
              "type": "uint256"
            },
            {
              "internalType": "uint256",
              "name": "salt",
              "type": "uint256"
            }
          ],
          "internalType": "struct LibOrder.Order",
          "name": "oldOrder",
          "type": "tuple"
        },
        {
          "components": [
            {
              "internalType": "address",
              "name": "seller",
              "type": "address"
            },
            {
              "internalType": "address",
              "name": "buyer",
              "type": "address"
            },
            {
              "internalType": "address",
              "name": "nft",
              "type": "address"
            },
            {
              "internalType": "uint256",
              "name": "nftId",
              "type": "uint256"
            },
            {
              "internalType": "address",
              "name": "token",
              "type": "address"
            },
            {
              "internalType": "uint256",
              "name": "price",
              "type": "uint256"
            },
            {
              "internalType": "uint256",
              "name": "start",
              "type": "uint256"
            },
            {
              "internalType": "uint256",
              "name": "end",
              "type": "uint256"
            },
            {
              "internalType": "uint256",
              "name": "salt",
              "type": "uint256"
            }
          ],
          "internalType": "struct LibOrder.Order",
          "name": "newOrder",
          "type": "tuple"
        }
      ],
      "name": "updateOrder",
      "outputs": [],
      "stateMutability": "payable",
      "type": "function"
    }
  ],
  "bytecode": "0x60806040523480156200001157600080fd5b50604051620041d9380380620041d9833981016040819052620000349162000219565b6000805460ff191681556200004a9033620000db565b620000767fa49807205ce4d355092ef5a8a18f56e8913cf4a201fbe287825b095693c2177533620000db565b620000a27f65d7a28e3265b37a6474929f336521b332c1681b933f6cb9f3376673440d862a33620000db565b600480546001600160a01b039485166001600160a01b031991821617909155600580549390941692169190911790915560065562000279565b620000f282826200011e60201b620028ad1760201c565b60008281526002602090815260409091206200011991839062002918620001a7821b17901c565b505050565b60008281526001602090815260408083206001600160a01b038516845290915290205460ff16620001a35760008281526001602081815260408084206001600160a01b0386168086529252808420805460ff19169093179092559051339285917f2f8788117e7eff1d82e926ec794901d17c78024a50270940304540a733656f0d9190a45b5050565b6000620001be836001600160a01b038416620001c7565b90505b92915050565b60008181526001830160205260408120546200021057508154600181810184556000848152602080822090930184905584548482528286019093526040902091909155620001c1565b506000620001c1565b6000806000606084860312156200022e578283fd5b83516200023b8162000260565b60208501519093506200024e8162000260565b80925050604084015190509250925092565b6001600160a01b03811681146200027657600080fd5b50565b613f5080620002896000396000f3fe6080604052600436106101f95760003560e01c80638456cb591161010d578063b62b73c7116100a0578063d071d3301161006f578063d071d330146105ad578063d44eb9e8146105c0578063d547741f146105d3578063e63ab1e9146105f3578063ec532d9c1461062757600080fd5b8063b62b73c71461053a578063b80777ea1461055a578063baad80d51461056d578063ca15c8731461058d57600080fd5b80639550c4b6116100dc5780639550c4b6146104b85780639ba89f9a146104d8578063a217fddf14610505578063a4908b331461051a57600080fd5b80638456cb59146104435780639010d07c1461045857806391d14854146104785780639522f1211461049857600080fd5b80633f4ba83a116101905780635f0a93781161015f5780635f0a9378146103a65780636a166964146103c65780636ed93dd0146103db57806375b238fc146103f15780637de1e5361461042557600080fd5b80633f4ba83a146103395780633fe8ced51461034e5780634ed2d2a51461036e5780635c975abb1461038e57600080fd5b806324fe220f116101cc57806324fe220f146102a75780632f2ff15d146102c757806336568abe146102e757806338af3eed1461030757600080fd5b806301ffc9a7146101fe5780631b053016146102335780631c31f71014610248578063248a9ca314610268575b600080fd5b34801561020a57600080fd5b5061021e610219366004613828565b610647565b60405190151581526020015b60405180910390f35b61024661024136600461386c565b610672565b005b34801561025457600080fd5b506102466102633660046135eb565b6108e0565b34801561027457600080fd5b506102996102833660046137c0565b6000908152600160208190526040909120015490565b60405190815260200161022a565b3480156102b357600080fd5b5061021e6102c2366004613850565b6109c0565b3480156102d357600080fd5b506102466102e23660046137d8565b610a5f565b3480156102f357600080fd5b506102466103023660046137d8565b610a8a565b34801561031357600080fd5b506005546001600160a01b03165b6040516001600160a01b03909116815260200161022a565b34801561034557600080fd5b50610246610b08565b34801561035a57600080fd5b50610246610369366004613850565b610b3d565b34801561037a57600080fd5b50610246610389366004613850565b611081565b34801561039a57600080fd5b5060005460ff1661021e565b3480156103b257600080fd5b506102466103c136600461371b565b6111f9565b3480156103d257600080fd5b50600654610299565b3480156103e757600080fd5b5061029961271081565b3480156103fd57600080fd5b506102997fa49807205ce4d355092ef5a8a18f56e8913cf4a201fbe287825b095693c2177581565b34801561043157600080fd5b506004546001600160a01b0316610321565b34801561044f57600080fd5b506102466112e0565b34801561046457600080fd5b50610321610473366004613807565b611312565b34801561048457600080fd5b5061021e6104933660046137d8565b611331565b3480156104a457600080fd5b506102466104b33660046137c0565b61135c565b3480156104c457600080fd5b506102466104d3366004613850565b61142b565b3480156104e457600080fd5b506104f86104f3366004613850565b611793565b60405161022a9190613d10565b34801561051157600080fd5b50610299600081565b34801561052657600080fd5b50610246610535366004613850565b6118a1565b34801561054657600080fd5b5061021e610555366004613850565b611a49565b34801561056657600080fd5b5042610299565b34801561057957600080fd5b50610299610588366004613850565b611c69565b34801561059957600080fd5b506102996105a83660046137c0565b611c74565b6102466105bb366004613850565b611c8b565b6102466105ce366004613850565b6120b0565b3480156105df57600080fd5b506102466105ee3660046137d8565b6126fb565b3480156105ff57600080fd5b506102997f65d7a28e3265b37a6474929f336521b332c1681b933f6cb9f3376673440d862a81565b34801561063357600080fd5b50610246610642366004613623565b612721565b60006001600160e01b03198216635a05180f60e01b148061066c575061066c8261292d565b92915050565b806101000151826101000151146107015760405162461bcd60e51b815260206004820152604260248201527f4d61726b6574706c6163653a2073616c74206f6620746865206f6c64206f726460448201527f657220646f6573206e6f74206d61746368207769746820746865206e6577206f6064820152616e6560f01b608482015260a4015b60405180910390fd5b600061070c83612962565b9050600061071983612962565b9050808214156107915760405162461bcd60e51b815260206004820152603760248201527f4d61726b6574706c6163653a20746865206f6c64206f7264657220697320657160448201527f756976616c656e7420746f20746865206e6577206f6e6500000000000000000060648201526084016106f8565b83516001600160a01b0316158015906107b85750825184516001600160a01b039081169116145b156107d4576107c684611081565b6107cf83610b3d565b6108a3565b60208401516001600160a01b031615801590610809575082602001516001600160a01b031684602001516001600160a01b0316145b1561082057610817846118a1565b6107cf836120b0565b60405162461bcd60e51b815260206004820152604c60248201527f4d61726b6574706c6163653a206f726465727320646f206e6f74206d6174636860448201527f2074686520696e70757420706172616d6574657273206f66207468652073656c60648201526b3632b91037b910313abcb2b960a11b608482015260a4016106f8565b7fc0681a7a87a0227cdbeb6dbf206355bf353def9389f16f2d3b27c90bd5ab8072836040516108d29190613d10565b60405180910390a150505050565b7fa49807205ce4d355092ef5a8a18f56e8913cf4a201fbe287825b095693c2177561090a81612a3c565b6001600160a01b0382166109755760405162461bcd60e51b815260206004820152602c60248201527f4d61726b6574706c6163653a206e65772062656e65666963696172792069732060448201526b7a65726f206164647265737360a01b60648201526084016106f8565b600580546001600160a01b0319166001600160a01b0384169081179091556040517f1008eccd86b7b0367a8fd91dc07c1796d0501cd3288389270be997f9cc24665b90600090a25050565b600061066c600760006109d285612962565b8152602080820192909252604090810160002081516101208101835281546001600160a01b039081168252600183015481169482019490945260028201548416928101929092526003810154606083015260048101549092166080820152600582015460a0820152600682015460c0820152600782015460e0820152600890910154610100820152612a46565b60008281526001602081905260409091200154610a7b81612a3c565b610a858383612a6f565b505050565b6001600160a01b0381163314610afa5760405162461bcd60e51b815260206004820152602f60248201527f416363657373436f6e74726f6c3a2063616e206f6e6c792072656e6f756e636560448201526e103937b632b9903337b91039b2b63360891b60648201526084016106f8565b610b048282612a91565b5050565b7f65d7a28e3265b37a6474929f336521b332c1681b933f6cb9f3376673440d862a610b3281612a3c565b610b3a612ab3565b50565b60005460ff1615610b605760405162461bcd60e51b81526004016106f890613bc6565b610b69816109c0565b15610b865760405162461bcd60e51b81526004016106f890613cc9565b610b938160400151612b46565b600081604001516001600160a01b0316636352211e83606001516040518263ffffffff1660e01b8152600401610bcb91815260200190565b60206040518083038186803b158015610be357600080fd5b505afa158015610bf7573d6000803e3d6000fd5b505050506040513d601f19601f82011682018060405250810190610c1b9190613607565b82519091506001600160a01b03163314610c815760405162461bcd60e51b815260206004820152602160248201527f4d61726b6574706c6163653a2073656c6c6572206973206e6f742073656e64656044820152603960f91b60648201526084016106f8565b806001600160a01b031682600001516001600160a01b031614610cf55760405162461bcd60e51b815260206004820152602660248201527f4d61726b6574706c6163653a2073656c6c6572206973206e6f7420746f6b656e6044820152651037bbb732b960d11b60648201526084016106f8565b60208201516001600160a01b031615610d5f5760405162461bcd60e51b815260206004820152602660248201527f4d61726b6574706c6163653a206275796572206973206e6f74207a65726f206160448201526564647265737360d01b60648201526084016106f8565b60008260a0015111610dad5760405162461bcd60e51b81526020600482015260176024820152764d61726b6574706c6163653a207a65726f20707269636560481b60448201526064016106f8565b306001600160a01b031682604001516001600160a01b031663081812fc84606001516040518263ffffffff1660e01b8152600401610ded91815260200190565b60206040518083038186803b158015610e0557600080fd5b505afa158015610e19573d6000803e3d6000fd5b505050506040513d601f19601f82011682018060405250810190610e3d9190613607565b6001600160a01b03161480610ed25750604080830151905163e985e9c560e01b81526001600160a01b0383811660048301523060248301529091169063e985e9c59060440160206040518083038186803b158015610e9a57600080fd5b505afa158015610eae573d6000803e3d6000fd5b505050506040513d601f19601f82011682018060405250810190610ed291906137a0565b610f445760405162461bcd60e51b815260206004820152603f60248201527f4d61726b6574706c6163653a2054686520636f6e7472616374206973206e6f7460448201527f20617070726f76656420746f207472616e73666572207468652061737365740060648201526084016106f8565b60c0820151158015610f58575060e0820151155b80610f795750428260c0015110158015610f7957508160e001518260c00151105b610f955760405162461bcd60e51b81526004016106f890613b1a565b8160076000610fa385612962565b81526020808201929092526040908101600020835181546001600160a01b03199081166001600160a01b0392831617835593850151600183018054861691831691909117905584830151600283018054861691831691909117905560608501516003830155608085015160048301805490951691161790925560a0830151600583015560c0830151600683015560e0830151600783015561010090920151600890910155517f9199ce8faf82131d122b7242148b71beb68edeb6f639ad8acfd95b580da0d5f790611075908490613d10565b60405180910390a15050565b61108a816109c0565b6110a65760405162461bcd60e51b81526004016106f890613c84565b60006110b182612962565b60008181526007602081815260409283902083516101208101855281546001600160a01b03908116808352600184015482169483019490945260028301548116958201959095526003820154606082015260048201549094166080850152600581015460a0850152600681015460c08501529182015460e084015260089091015461010083015291925090331461115a5760405162461bcd60e51b81526004016106f890613c3c565b600082815260076020819052604080832080546001600160a01b0319908116825560018201805482169055600282018054821690556003820185905560048201805490911690556005810184905560068101849055918201839055600890910191909155517f5c6f3e0592bb87adae0bb95d920725e5b37839cba601e915c3c86c1ebea08f4e906111ec908390613d10565b60405180910390a1505050565b60005460ff161561121c5760405162461bcd60e51b81526004016106f890613bc6565b600061122760035490565b600480546040516378601be560e11b81529293506001600160a01b03169163f0c037ca9161125d9189918691899189910161397f565b600060405180830381600087803b15801561127757600080fd5b505af115801561128b573d6000803e3d6000fd5b5050505061129d600380546001019055565b807f2e96803227f5b3f10c786434b7489439c27d306e897df51be980bceb3ae6846c8585856040516112d193929190613a90565b60405180910390a25050505050565b7f65d7a28e3265b37a6474929f336521b332c1681b933f6cb9f3376673440d862a61130a81612a3c565b610b3a612c36565b600082815260026020526040812061132a9083612c8e565b9392505050565b60009182526001602090815260408084206001600160a01b0393909316845291905290205460ff1690565b7fa49807205ce4d355092ef5a8a18f56e8913cf4a201fbe287825b095693c2177561138681612a3c565b60008211801561139857506127108211155b6113f65760405162461bcd60e51b815260206004820152602960248201527f4d61726b6574706c6163653a20666565206d61726b6574706c616365206973206044820152681a5b98dbdc9c9958dd60ba1b60648201526084016106f8565b60068290556040518281527f81c0b098aa1bce531f7cce0ce9fe91067f25811cbce81519243e47a1ad123f5990602001611075565b611434816109c0565b6114505760405162461bcd60e51b81526004016106f890613c84565b600061145b82612962565b60008181526007602081815260409283902083516101208101855281546001600160a01b03908116808352600184015482169483019490945260028301548116958201959095526003820154606082015260048201549094166080850152600581015460a0850152600681015460c08501529182015460e0840152600890910154610100830152919250903314156115355760405162461bcd60e51b815260206004820152601f60248201527f4d61726b6574706c6163653a2073656e64657220697320612073656c6c65720060448201526064016106f8565b60c081015115806115495750428160c00151105b6115655760405162461bcd60e51b81526004016106f890613acc565b60e081015115806115795750428160e00151115b6115955760405162461bcd60e51b81526004016106f890613bf0565b6000828152600760208190526040822080546001600160a01b03199081168255600182018054821690556002820180548216905560038201849055600482018054909116905560058101839055600681018390559081018290556008018190556115fe82612c9a565b90506000818360a001516116129190613e60565b60808401519091506001600160a01b031661165a57604051339082156108fc029083906000818181858888f19350505050158015611654573d6000803e3d6000fd5b506116e7565b608083015160208401516040516323b872dd60e01b81526001600160a01b03909216916323b872dd91611693913390869060040161395b565b602060405180830381600087803b1580156116ad57600080fd5b505af11580156116c1573d6000803e3d6000fd5b505050506040513d601f19601f820116820180604052508101906116e591906137a0565b505b82604001516001600160a01b03166342842e0e33856020015186606001516040518463ffffffff1660e01b81526004016117239392919061395b565b600060405180830381600087803b15801561173d57600080fd5b505af1158015611751573d6000803e3d6000fd5b505050507faf1f1022749f7791cc3ea31b6a2771c12b1df3ed6395c3d410dd4b915aa5ed8f836040516117849190613d10565b60405180910390a15050505050565b61180660405180610120016040528060006001600160a01b0316815260200160006001600160a01b0316815260200160006001600160a01b031681526020016000815260200160006001600160a01b03168152602001600081526020016000815260200160008152602001600081525090565b6007600061181384612962565b8152602080820192909252604090810160002081516101208101835281546001600160a01b039081168252600183015481169482019490945260028201548416928101929092526003810154606083015260048101549092166080820152600582015460a0820152600682015460c0820152600782015460e082015260089091015461010082015292915050565b6118aa816109c0565b6118c65760405162461bcd60e51b81526004016106f890613c84565b60006118d182612962565b60008181526007602081815260409283902083516101208101855281546001600160a01b0390811682526001830154811693820184905260028301548116958201959095526003820154606082015260048201549094166080850152600581015460a0850152600681015460c08501529182015460e08401526008909101546101008301529192509033146119785760405162461bcd60e51b81526004016106f890613c3c565b6000828152600760208190526040822080546001600160a01b03199081168255600182018054821690556002820180548216905560038201849055600482018054909116905560058101839055600681018390559081018290556008015560808101516001600160a01b0316611a1a5760a0810151604051339180156108fc02916000818181858888f19350505050158015611a18573d6000803e3d6000fd5b505b7f5c6f3e0592bb87adae0bb95d920725e5b37839cba601e915c3c86c1ebea08f4e816040516111ec9190613d10565b60008060076000611a5985612962565b8152602080820192909252604090810160002081516101208101835281546001600160a01b039081168252600183015481169482019490945260028201548416928101929092526003810154606083015260048101549092166080820152600582015460a0820152600682015460c0820152600782015460e08201526008909101546101008201529050611aec81612a46565b801561132a575080516001600160a01b031615801590611ba6575080604001516001600160a01b0316636352211e82606001516040518263ffffffff1660e01b8152600401611b3d91815260200190565b60206040518083038186803b158015611b5557600080fd5b505afa158015611b69573d6000803e3d6000fd5b505050506040513d601f19601f82011682018060405250810190611b8d9190613607565b6001600160a01b031681600001516001600160a01b0316145b8061132a575060208101516001600160a01b03161580159061132a575080604001516001600160a01b0316636352211e82606001516040518263ffffffff1660e01b8152600401611bf991815260200190565b60206040518083038186803b158015611c1157600080fd5b505afa158015611c25573d6000803e3d6000fd5b505050506040513d601f19601f82011682018060405250810190611c499190613607565b6001600160a01b031681602001516001600160a01b031614159392505050565b600061066c82612962565b600081815260026020526040812061066c90612f24565b611c94816109c0565b611cb05760405162461bcd60e51b81526004016106f890613c84565b6000611cbb82612962565b60008181526007602081815260409283902083516101208101855281546001600160a01b03908116808352600184015482169483019490945260028301548116958201959095526003820154606082015260048201549094166080850152600581015460a0850152600681015460c08501529182015460e084015260089091015461010083015291925090331415611d955760405162461bcd60e51b815260206004820152601f60248201527f4d61726b6574706c6163653a2073656e64657220697320612073656c6c65720060448201526064016106f8565b80604001516001600160a01b0316636352211e82606001516040518263ffffffff1660e01b8152600401611dcb91815260200190565b60206040518083038186803b158015611de357600080fd5b505afa158015611df7573d6000803e3d6000fd5b505050506040513d601f19601f82011682018060405250810190611e1b9190613607565b6001600160a01b031681600001516001600160a01b031614611e9c5760405162461bcd60e51b815260206004820152603460248201527f4d61726b6574706c6163653a207468652073656c6c6572206973206e6f206c6f6044820152733733b2b9103a3432903a37b5b2b71037bbb732b960611b60648201526084016106f8565b60c08101511580611eb05750428160c00151105b611ecc5760405162461bcd60e51b81526004016106f890613acc565b60e08101511580611ee05750428160e00151115b611efc5760405162461bcd60e51b81526004016106f890613bf0565b6000828152600760208190526040822080546001600160a01b0319908116825560018201805482169055600282018054821690556003820184905560048201805490911690556005810183905560068101839055908101829055600801819055611f6582612c9a565b90506000818360a00151611f799190613e60565b60808401519091506001600160a01b0316611fcd5782516040516001600160a01b039091169082156108fc029083906000818181858888f19350505050158015611fc7573d6000803e3d6000fd5b50612076565b3415611feb5760405162461bcd60e51b81526004016106f890613b68565b608083015183516040516323b872dd60e01b81526001600160a01b03909216916323b872dd9161202291339190869060040161395b565b602060405180830381600087803b15801561203c57600080fd5b505af1158015612050573d6000803e3d6000fd5b505050506040513d601f19601f8201168201806040525081019061207491906137a0565b505b604080840151845160608601519251632142170760e11b81526001600160a01b03909216926342842e0e926117239291339160040161395b565b60005460ff16156120d35760405162461bcd60e51b81526004016106f890613bc6565b6120dc816109c0565b156120f95760405162461bcd60e51b81526004016106f890613cc9565b6121068160400151612b46565b336001600160a01b031681604001516001600160a01b0316636352211e83606001516040518263ffffffff1660e01b815260040161214691815260200190565b60206040518083038186803b15801561215e57600080fd5b505afa158015612172573d6000803e3d6000fd5b505050506040513d601f19601f820116820180604052508101906121969190613607565b6001600160a01b031614156121f75760405162461bcd60e51b815260206004820152602160248201527f4d61726b6574706c6163653a20627579657220697320746f6b656e206f776e656044820152603960f91b60648201526084016106f8565b60208101516001600160a01b031633146122535760405162461bcd60e51b815260206004820181905260248201527f4d61726b6574706c6163653a206275796572206973206e6f742073656e64657260448201526064016106f8565b80516001600160a01b0316156122bb5760405162461bcd60e51b815260206004820152602760248201527f4d61726b6574706c6163653a2073656c6c6572206973206e6f74207a65726f206044820152666164647265737360c81b60648201526084016106f8565b60008160a00151116123095760405162461bcd60e51b81526020600482015260176024820152764d61726b6574706c6163653a207a65726f20707269636560481b60448201526064016106f8565b60808101516001600160a01b031661239957348160a00151146123945760405162461bcd60e51b815260206004820152603d60248201527f4d61726b6574706c6163653a20746865206e756d626572206f6620746f6b656e60448201527f732073656e74206973206c657373207468616e2074686520707269636500000060648201526084016106f8565b6125bf565b34156123b75760405162461bcd60e51b81526004016106f890613b68565b60a081015160808201516040516370a0823160e01b81523360048201526001600160a01b03909116906370a082319060240160206040518083038186803b15801561240157600080fd5b505afa158015612415573d6000803e3d6000fd5b505050506040513d601f19601f8201168201806040525081019061243991906138a2565b10156124b75760405162461bcd60e51b815260206004820152604160248201527f4d61726b6574706c6163653a20707269636520616e642066656520657863656560448201527f64732062757965722062616c616e6365206f66207061796d656e7420746f6b656064820152603760f91b608482015260a4016106f8565b60a08101516080820151604051636eb1769f60e11b81523360048201523060248201526001600160a01b039091169063dd62ed3e9060440160206040518083038186803b15801561250757600080fd5b505afa15801561251b573d6000803e3d6000fd5b505050506040513d601f19601f8201168201806040525081019061253f91906138a2565b10156125bf5760405162461bcd60e51b815260206004820152604360248201527f4d61726b6574706c6163653a20707269636520616e642066656520657863656560448201527f647320627579657220616c6c6f77616e6365206f66207061796d656e7420746f60648201526235b2b760e91b608482015260a4016106f8565b60c08101511580156125d3575060e0810151155b806125f45750428160c00151101580156125f457508060e001518160c00151105b6126105760405162461bcd60e51b81526004016106f890613b1a565b806007600061261e84612962565b81526020808201929092526040908101600020835181546001600160a01b03199081166001600160a01b0392831617835593850151600183018054861691831691909117905584830151600283018054861691831691909117905560608501516003830155608085015160048301805490951691161790925560a0830151600583015560c0830151600683015560e0830151600783015561010090920151600890910155517f9199ce8faf82131d122b7242148b71beb68edeb6f639ad8acfd95b580da0d5f7906126f0908390613d10565b60405180910390a150565b6000828152600160208190526040909120015461271781612a3c565b610a858383612a91565b60005460ff16156127445760405162461bcd60e51b81526004016106f890613bc6565b825160008167ffffffffffffffff81111561276f57634e487b7160e01b600052604160045260246000fd5b604051908082528060200260200182016040528015612798578160200160208202803683370190505b50905060005b828110156128675760006127b160035490565b600480546040516378601be560e11b81529293506001600160a01b03169163f0c037ca916127e7918c9186918c918c910161397f565b600060405180830381600087803b15801561280157600080fd5b505af1158015612815573d6000803e3d6000fd5b505050508083838151811061283a57634e487b7160e01b600052603260045260246000fd5b602002602001018181525050612854600380546001019055565b508061285f81613ebe565b91505061279e565b507f2c278aaf59a49bedf1f8aeed3eb6b11a664aa20b7827870ee254cf348e5b23668186868660405161289d94939291906139c0565b60405180910390a1505050505050565b6128b78282611331565b610b045760008281526001602081815260408084206001600160a01b0386168086529252808420805460ff19169093179092559051339285917f2f8788117e7eff1d82e926ec794901d17c78024a50270940304540a733656f0d9190a45050565b600061132a836001600160a01b038416612f2e565b60006001600160e01b03198216637965db0b60e01b148061066c57506301ffc9a760e01b6001600160e01b031983161461066c565b60007f7912481db1a73c81bd81eb7f42d3d286d5dac6accdc542d4d7a24a777c2010fe826000015183602001518460400151856060015186608001518760a001518860c001518960e001518a6101000151604051602001612a1f9a99989796959493929190998a526001600160a01b0398891660208b015296881660408a015294871660608901526080880193909352941660a086015260c085019390935260e08401929092526101008301919091526101208201526101400190565b604051602081830303815290604052805190602001209050919050565b610b3a8133612f7d565b80516000906001600160a01b031615158061066c575050602001516001600160a01b0316151590565b612a7982826128ad565b6000828152600260205260409020610a859082612918565b612a9b8282612fe1565b6000828152600260205260409020610a859082613048565b60005460ff16612afc5760405162461bcd60e51b815260206004820152601460248201527314185d5cd8589b194e881b9bdd081c185d5cd95960621b60448201526064016106f8565b6000805460ff191690557f5db9ee0a495bf2e6ff9c91a7834c1ba4fdd244a5e8aa4e537bd38aeae4b073aa335b6040516001600160a01b03909116815260200160405180910390a1565b6040516301ffc9a760e01b81526380ac58cd60e01b60048201526001600160a01b038216906301ffc9a79060240160206040518083038186803b158015612b8c57600080fd5b505afa158015612ba0573d6000803e3d6000fd5b505050506040513d601f19601f82011682018060405250810190612bc491906137a0565b610b3a5760405162461bcd60e51b815260206004820152603e60248201527f4d61726b6574706c6163653a207468652045524337323120696e74657266616360448201527f65206973206e6f7420737570706f7274656420627920636f6e7472616374000060648201526084016106f8565b60005460ff1615612c595760405162461bcd60e51b81526004016106f890613bc6565b6000805460ff191660011790557f62e78cea01bee320cd4e420270b5ea74000d11b0c9f74754ebdbfc544b05a258612b293390565b600061132a838361305d565b6000806000612cb6846040015185606001518660a00151613095565b915091506000612cc98560a001516131a9565b9050612cd58183613e09565b93508460a001518410612d3f5760405162461bcd60e51b815260206004820152602c60248201527f4d61726b6574706c6163653a2074686520746f74616c2066656520657863656560448201526b64732074686520707269636560a01b60648201526084016106f8565b60808501516001600160a01b0316612dd6578115612d8f576040516001600160a01b0384169083156108fc029084906000818181858888f19350505050158015612d8d573d6000803e3d6000fd5b505b8015612dd1576005546040516001600160a01b039091169082156108fc029083906000818181858888f19350505050158015612dcf573d6000803e3d6000fd5b505b612f1c565b84516000906001600160a01b031615612def5733612df5565b85602001515b90508215612e855785608001516001600160a01b03166323b872dd8286866040518463ffffffff1660e01b8152600401612e319392919061395b565b602060405180830381600087803b158015612e4b57600080fd5b505af1158015612e5f573d6000803e3d6000fd5b505050506040513d601f19601f82011682018060405250810190612e8391906137a0565b505b8115612f1a5760808601516005546040516323b872dd60e01b81526001600160a01b03928316926323b872dd92612ec692869290911690879060040161395b565b602060405180830381600087803b158015612ee057600080fd5b505af1158015612ef4573d6000803e3d6000fd5b505050506040513d601f19601f82011682018060405250810190612f1891906137a0565b505b505b505050919050565b600061066c825490565b6000818152600183016020526040812054612f755750815460018181018455600084815260208082209093018490558454848252828601909352604090209190915561066c565b50600061066c565b612f878282611331565b610b0457612f9f816001600160a01b031660146131c6565b612faa8360206131c6565b604051602001612fbb9291906138e6565b60408051601f198184030181529082905262461bcd60e51b82526106f891600401613a7d565b612feb8282611331565b15610b045760008281526001602090815260408083206001600160a01b0385168085529252808320805460ff1916905551339285917ff6391f5c32d9c69d2a47ea670b442974b53935d1edc7fd64eb21e047a839171b9190a45050565b600061132a836001600160a01b0384166133a8565b600082600001828154811061308257634e487b7160e01b600052603260045260246000fd5b9060005260206000200154905092915050565b6040516301ffc9a760e01b815263152a902d60e11b600482015260009081906001600160a01b038616906301ffc9a79060240160206040518083038186803b1580156130e057600080fd5b505afa1580156130f4573d6000803e3d6000fd5b505050506040513d601f19601f8201168201806040525081019061311891906137a0565b156131a15760405163152a902d60e11b815260048101859052602481018490526001600160a01b03861690632a55205a90604401604080518083038186803b15801561316357600080fd5b505afa158015613177573d6000803e3d6000fd5b505050506040513d601f19601f8201168201806040525081019061319b9190613773565b90925090505b935093915050565b6000612710600654836131bc9190613e41565b61066c9190613e21565b606060006131d5836002613e41565b6131e0906002613e09565b67ffffffffffffffff81111561320657634e487b7160e01b600052604160045260246000fd5b6040519080825280601f01601f191660200182016040528015613230576020820181803683370190505b509050600360fc1b8160008151811061325957634e487b7160e01b600052603260045260246000fd5b60200101906001600160f81b031916908160001a905350600f60fb1b8160018151811061329657634e487b7160e01b600052603260045260246000fd5b60200101906001600160f81b031916908160001a90535060006132ba846002613e41565b6132c5906001613e09565b90505b6001811115613359576f181899199a1a9b1b9c1cb0b131b232b360811b85600f166010811061330757634e487b7160e01b600052603260045260246000fd5b1a60f81b82828151811061332b57634e487b7160e01b600052603260045260246000fd5b60200101906001600160f81b031916908160001a90535060049490941c9361335281613ea7565b90506132c8565b50831561132a5760405162461bcd60e51b815260206004820181905260248201527f537472696e67733a20686578206c656e67746820696e73756666696369656e7460448201526064016106f8565b600081815260018301602052604081205480156134bb5760006133cc600183613e60565b85549091506000906133e090600190613e60565b905081811461346157600086600001828154811061340e57634e487b7160e01b600052603260045260246000fd5b906000526020600020015490508087600001848154811061343f57634e487b7160e01b600052603260045260246000fd5b6000918252602080832090910192909255918252600188019052604090208390555b855486908061348057634e487b7160e01b600052603160045260246000fd5b60019003818190600052602060002001600090559055856001016000868152602001908152602001600020600090556001935050505061066c565b600091505061066c565b80356134d081613f05565b919050565b600082601f8301126134e5578081fd5b813567ffffffffffffffff8111156134ff576134ff613eef565b613512601f8201601f1916602001613dd8565b818152846020838601011115613526578283fd5b816020850160208301379081016020019190915292915050565b60006101208284031215613552578081fd5b61355a613dae565b9050613565826134c5565b8152613573602083016134c5565b6020820152613584604083016134c5565b60408201526060820135606082015261359f608083016134c5565b608082015260a082013560a082015260c082013560c082015260e082013560e082015261010080830135818301525092915050565b80356001600160601b03811681146134d057600080fd5b6000602082840312156135fc578081fd5b813561132a81613f05565b600060208284031215613618578081fd5b815161132a81613f05565b60008060008060808587031215613638578283fd5b843561364381613f05565b935060208581013567ffffffffffffffff80821115613660578586fd5b818801915088601f830112613673578586fd5b81358181111561368557613685613eef565b8060051b613694858201613dd8565b8281528581019085870183870188018e10156136ae578a8bfd5b8a93505b848410156136eb578035868111156136c8578b8cfd5b6136d68f8a838b01016134d5565b845250600193909301929187019187016136b2565b5080995050505050505050613702604086016134c5565b9150613710606086016135d4565b905092959194509250565b60008060008060808587031215613730578384fd5b843561373b81613f05565b9350602085013567ffffffffffffffff811115613756578384fd5b613762878288016134d5565b935050604085013561370281613f05565b60008060408385031215613785578182fd5b825161379081613f05565b6020939093015192949293505050565b6000602082840312156137b1578081fd5b8151801515811461132a578182fd5b6000602082840312156137d1578081fd5b5035919050565b600080604083850312156137ea578182fd5b8235915060208301356137fc81613f05565b809150509250929050565b60008060408385031215613819578182fd5b50508035926020909101359150565b600060208284031215613839578081fd5b81356001600160e01b03198116811461132a578182fd5b60006101208284031215613862578081fd5b61132a8383613540565b600080610240838503121561387f578182fd5b6138898484613540565b9150613899846101208501613540565b90509250929050565b6000602082840312156138b3578081fd5b5051919050565b600081518084526138d2816020860160208601613e77565b601f01601f19169290920160200192915050565b7f416363657373436f6e74726f6c3a206163636f756e742000000000000000000081526000835161391e816017850160208801613e77565b7001034b99036b4b9b9b4b733903937b6329607d1b601791840191820152835161394f816028840160208801613e77565b01602801949350505050565b6001600160a01b039384168152919092166020820152604081019190915260600190565b6001600160a01b039485168152602081019390935260a060408401819052600090840152921660608201526001600160601b03909116608082015260c00190565b6080808252855190820181905260009060209060a0840190828901845b828110156139f9578151845292840192908401906001016139dd565b50505083810382850152865180825282820190600581901b83018401898501865b83811015613a4857601f19868403018552613a368383516138ba565b94870194925090860190600101613a1a565b50506001600160a01b03891660408801529450613a659350505050565b6001600160601b038316606083015295945050505050565b60208152600061132a60208301846138ba565b606081526000613aa360608301866138ba565b6001600160a01b03949094166020830152506001600160601b0391909116604090910152919050565b6020808252602e908201527f4d61726b6574706c6163653a20746865206f726465722073746172742076616c60408201526d1a59185d1a5bdb8819985a5b195960921b606082015260800190565b6020808252602e908201527f4d61726b6574706c6163653a206f726465722073746172742f656e642076616c60408201526d1a59185d1a5bdb8819985a5b195960921b606082015260800190565b602080825260409082018190527f4d61726b6574706c6163653a2073656c6563746564207061796d656e7420746f908201527f6b656e206973206e6f7420657175616c20746f207a65726f2061646472657373606082015260800190565b60208082526010908201526f14185d5cd8589b194e881c185d5cd95960821b604082015260600190565b6020808252602c908201527f4d61726b6574706c6163653a20746865206f7264657220656e642076616c696460408201526b185d1a5bdb8819985a5b195960a21b606082015260800190565b60208082526028908201527f4d61726b6574706c6163653a2073656e646572206973206e6f74206f726465726040820152671031b932b0ba37b960c11b606082015260800190565b60208082526025908201527f4d61726b6574706c6163653a20746865206f7264657220646f6573206e6f7420604082015264195e1a5cdd60da1b606082015260800190565b60208082526027908201527f4d61726b6574706c6163653a20746865206f7264657220697320657869737420604082015266616c726561647960c81b606082015260800190565b81516001600160a01b03168152602080830151610120830191613d3d908401826001600160a01b03169052565b506040830151613d5860408401826001600160a01b03169052565b50606083015160608301526080830151613d7d60808401826001600160a01b03169052565b5060a083015160a083015260c083015160c083015260e083015160e083015261010080840151818401525092915050565b604051610120810167ffffffffffffffff81118282101715613dd257613dd2613eef565b60405290565b604051601f8201601f1916810167ffffffffffffffff81118282101715613e0157613e01613eef565b604052919050565b60008219821115613e1c57613e1c613ed9565b500190565b600082613e3c57634e487b7160e01b81526012600452602481fd5b500490565b6000816000190483118215151615613e5b57613e5b613ed9565b500290565b600082821015613e7257613e72613ed9565b500390565b60005b83811015613e92578181015183820152602001613e7a565b83811115613ea1576000848401525b50505050565b600081613eb657613eb6613ed9565b506000190190565b6000600019821415613ed257613ed2613ed9565b5060010190565b634e487b7160e01b600052601160045260246000fd5b634e487b7160e01b600052604160045260246000fd5b6001600160a01b0381168114610b3a57600080fdfea26469706673582212200c97845811f5b16c0c6ddee8e6fe0dc39b0af6954d3492d3150587086572995b64736f6c63430008040033",
  "linkReferences": {},
  "deployedLinkReferences": {}
}